{"abi":[{"type":"constructor","inputs":[],"stateMutability":"nonpayable"},{"type":"function","name":"MAX_SUPPLY","inputs":[],"outputs":[{"name":"","type":"uint256","internalType":"uint256"}],"stateMutability":"view"},{"type":"function","name":"allowance","inputs":[{"name":"owner","type":"address","internalType":"address"},{"name":"spender","type":"address","internalType":"address"}],"outputs":[{"name":"","type":"uint256","internalType":"uint256"}],"stateMutability":"view"},{"type":"function","name":"approve","inputs":[{"name":"spender","type":"address","internalType":"address"},{"name":"value","type":"uint256","internalType":"uint256"}],"outputs":[{"name":"","type":"bool","internalType":"bool"}],"stateMutability":"nonpayable"},{"type":"function","name":"authorizedContracts","inputs":[{"name":"","type":"address","internalType":"address"}],"outputs":[{"name":"","type":"bool","internalType":"bool"}],"stateMutability":"view"},{"type":"function","name":"balanceOf","inputs":[{"name":"account","type":"address","internalType":"address"}],"outputs":[{"name":"","type":"uint256","internalType":"uint256"}],"stateMutability":"view"},{"type":"function","name":"decimals","inputs":[],"outputs":[{"name":"","type":"uint8","internalType":"uint8"}],"stateMutability":"view"},{"type":"function","name":"depositTokens","inputs":[{"name":"amount","type":"uint256","internalType":"uint256"}],"outputs":[],"stateMutability":"nonpayable"},{"type":"function","name":"distributeRewards","inputs":[{"name":"recipient","type":"address","internalType":"address"},{"name":"amount","type":"uint256","internalType":"uint256"}],"outputs":[],"stateMutability":"nonpayable"},{"type":"function","name":"name","inputs":[],"outputs":[{"name":"","type":"string","internalType":"string"}],"stateMutability":"view"},{"type":"function","name":"owner","inputs":[],"outputs":[{"name":"","type":"address","internalType":"address"}],"stateMutability":"view"},{"type":"function","name":"renounceOwnership","inputs":[],"outputs":[],"stateMutability":"nonpayable"},{"type":"function","name":"setAuthorizedContract","inputs":[{"name":"contractAddress","type":"address","internalType":"address"},{"name":"status","type":"bool","internalType":"bool"}],"outputs":[],"stateMutability":"nonpayable"},{"type":"function","name":"symbol","inputs":[],"outputs":[{"name":"","type":"string","internalType":"string"}],"stateMutability":"view"},{"type":"function","name":"totalSupply","inputs":[],"outputs":[{"name":"","type":"uint256","internalType":"uint256"}],"stateMutability":"view"},{"type":"function","name":"transfer","inputs":[{"name":"to","type":"address","internalType":"address"},{"name":"value","type":"uint256","internalType":"uint256"}],"outputs":[{"name":"","type":"bool","internalType":"bool"}],"stateMutability":"nonpayable"},{"type":"function","name":"transferFrom","inputs":[{"name":"from","type":"address","internalType":"address"},{"name":"to","type":"address","internalType":"address"},{"name":"value","type":"uint256","internalType":"uint256"}],"outputs":[{"name":"","type":"bool","internalType":"bool"}],"stateMutability":"nonpayable"},{"type":"function","name":"transferOwnership","inputs":[{"name":"newOwner","type":"address","internalType":"address"}],"outputs":[],"stateMutability":"nonpayable"},{"type":"event","name":"Approval","inputs":[{"name":"owner","type":"address","indexed":true,"internalType":"address"},{"name":"spender","type":"address","indexed":true,"internalType":"address"},{"name":"value","type":"uint256","indexed":false,"internalType":"uint256"}],"anonymous":false},{"type":"event","name":"AuthorizedContract","inputs":[{"name":"contractAddress","type":"address","indexed":true,"internalType":"address"},{"name":"status","type":"bool","indexed":false,"internalType":"bool"}],"anonymous":false},{"type":"event","name":"FundsAdded","inputs":[{"name":"sender","type":"address","indexed":true,"internalType":"address"},{"name":"amount","type":"uint256","indexed":false,"internalType":"uint256"}],"anonymous":false},{"type":"event","name":"OwnershipTransferred","inputs":[{"name":"previousOwner","type":"address","indexed":true,"internalType":"address"},{"name":"newOwner","type":"address","indexed":true,"internalType":"address"}],"anonymous":false},{"type":"event","name":"RewardsDistributed","inputs":[{"name":"recipient","type":"address","indexed":true,"internalType":"address"},{"name":"amount","type":"uint256","indexed":false,"internalType":"uint256"}],"anonymous":false},{"type":"event","name":"Transfer","inputs":[{"name":"from","type":"address","indexed":true,"internalType":"address"},{"name":"to","type":"address","indexed":true,"internalType":"address"},{"name":"value","type":"uint256","indexed":false,"internalType":"uint256"}],"anonymous":false},{"type":"error","name":"ERC20InsufficientAllowance","inputs":[{"name":"spender","type":"address","internalType":"address"},{"name":"allowance","type":"uint256","internalType":"uint256"},{"name":"needed","type":"uint256","internalType":"uint256"}]},{"type":"error","name":"ERC20InsufficientBalance","inputs":[{"name":"sender","type":"address","internalType":"address"},{"name":"balance","type":"uint256","internalType":"uint256"},{"name":"needed","type":"uint256","internalType":"uint256"}]},{"type":"error","name":"ERC20InvalidApprover","inputs":[{"name":"approver","type":"address","internalType":"address"}]},{"type":"error","name":"ERC20InvalidReceiver","inputs":[{"name":"receiver","type":"address","internalType":"address"}]},{"type":"error","name":"ERC20InvalidSender","inputs":[{"name":"sender","type":"address","internalType":"address"}]},{"type":"error","name":"ERC20InvalidSpender","inputs":[{"name":"spender","type":"address","internalType":"address"}]},{"type":"error","name":"OwnableInvalidOwner","inputs":[{"name":"owner","type":"address","internalType":"address"}]},{"type":"error","name":"OwnableUnauthorizedAccount","inputs":[{"name":"account","type":"address","internalType":"address"}]}],"bytecode":{"object":"0x608060405234801561000f575f5ffd5b50336040518060400160405280600a81526020017f4465536369546f6b656e000000000000000000000000000000000000000000008152506040518060400160405280600381526020017f4453540000000000000000000000000000000000000000000000000000000000815250816003908161008c91906106dd565b50806004908161009c91906106dd565b5050505f73ffffffffffffffffffffffffffffffffffffffff168173ffffffffffffffffffffffffffffffffffffffff160361010f575f6040517f1e4fbdf700000000000000000000000000000000000000000000000000000000815260040161010691906107eb565b60405180910390fd5b61011e8161013f60201b60201c565b5061013a306a52b7d2dcc80cd2e400000061020260201b60201c565b6108c1565b5f60055f9054906101000a900473ffffffffffffffffffffffffffffffffffffffff1690508160055f6101000a81548173ffffffffffffffffffffffffffffffffffffffff021916908373ffffffffffffffffffffffffffffffffffffffff1602179055508173ffffffffffffffffffffffffffffffffffffffff168173ffffffffffffffffffffffffffffffffffffffff167f8be0079c531659141344cd1fd0a4f28419497f9722a3daafe3b4186f6b6457e060405160405180910390a35050565b5f73ffffffffffffffffffffffffffffffffffffffff168273ffffffffffffffffffffffffffffffffffffffff1603610272575f6040517fec442f0500000000000000000000000000000000000000000000000000000000815260040161026991906107eb565b60405180910390fd5b6102835f838361028760201b60201c565b5050565b5f73ffffffffffffffffffffffffffffffffffffffff168373ffffffffffffffffffffffffffffffffffffffff16036102d7578060025f8282546102cb9190610831565b925050819055506103a5565b5f5f5f8573ffffffffffffffffffffffffffffffffffffffff1673ffffffffffffffffffffffffffffffffffffffff1681526020019081526020015f2054905081811015610360578381836040517fe450d38c00000000000000000000000000000000000000000000000000000000815260040161035793929190610873565b60405180910390fd5b8181035f5f8673ffffffffffffffffffffffffffffffffffffffff1673ffffffffffffffffffffffffffffffffffffffff1681526020019081526020015f2081905550505b5f73ffffffffffffffffffffffffffffffffffffffff168273ffffffffffffffffffffffffffffffffffffffff16036103ec578060025f8282540392505081905550610436565b805f5f8473ffffffffffffffffffffffffffffffffffffffff1673ffffffffffffffffffffffffffffffffffffffff1681526020019081526020015f205f82825401925050819055505b8173ffffffffffffffffffffffffffffffffffffffff168373ffffffffffffffffffffffffffffffffffffffff167fddf252ad1be2c89b69c2b068fc378daa952ba7f163c4a11628f55a4df523b3ef8360405161049391906108a8565b60405180910390a3505050565b5f81519050919050565b7f4e487b71000000000000000000000000000000000000000000000000000000005f52604160045260245ffd5b7f4e487b71000000000000000000000000000000000000000000000000000000005f52602260045260245ffd5b5f600282049050600182168061051b57607f821691505b60208210810361052e5761052d6104d7565b5b50919050565b5f819050815f5260205f209050919050565b5f6020601f8301049050919050565b5f82821b905092915050565b5f600883026105907fffffffffffffffffffffffffffffffffffffffffffffffffffffffffffffffff82610555565b61059a8683610555565b95508019841693508086168417925050509392505050565b5f819050919050565b5f819050919050565b5f6105de6105d96105d4846105b2565b6105bb565b6105b2565b9050919050565b5f819050919050565b6105f7836105c4565b61060b610603826105e5565b848454610561565b825550505050565b5f5f905090565b610622610613565b61062d8184846105ee565b505050565b5b81811015610650576106455f8261061a565b600181019050610633565b5050565b601f8211156106955761066681610534565b61066f84610546565b8101602085101561067e578190505b61069261068a85610546565b830182610632565b50505b505050565b5f82821c905092915050565b5f6106b55f198460080261069a565b1980831691505092915050565b5f6106cd83836106a6565b9150826002028217905092915050565b6106e6826104a0565b67ffffffffffffffff8111156106ff576106fe6104aa565b5b6107098254610504565b610714828285610654565b5f60209050601f831160018114610745575f8415610733578287015190505b61073d85826106c2565b8655506107a4565b601f19841661075386610534565b5f5b8281101561077a57848901518255600182019150602085019450602081019050610755565b868310156107975784890151610793601f8916826106a6565b8355505b6001600288020188555050505b505050505050565b5f73ffffffffffffffffffffffffffffffffffffffff82169050919050565b5f6107d5826107ac565b9050919050565b6107e5816107cb565b82525050565b5f6020820190506107fe5f8301846107dc565b92915050565b7f4e487b71000000000000000000000000000000000000000000000000000000005f52601160045260245ffd5b5f61083b826105b2565b9150610846836105b2565b925082820190508082111561085e5761085d610804565b5b92915050565b61086d816105b2565b82525050565b5f6060820190506108865f8301866107dc565b6108936020830185610864565b6108a06040830184610864565b949350505050565b5f6020820190506108bb5f830184610864565b92915050565b6114d6806108ce5f395ff3fe608060405234801561000f575f5ffd5b5060043610610109575f3560e01c80638da5cb5b116100a0578063d5b9221b1161006f578063d5b9221b146102a7578063dd49756e146102d7578063dd62ed3e146102f3578063f2fa739214610323578063f2fde38b1461033f57610109565b80638da5cb5b1461021f57806395d89b411461023d578063a8031a1d1461025b578063a9059cbb1461027757610109565b8063313ce567116100dc578063313ce567146101a957806332cb6b0c146101c757806370a08231146101e5578063715018a61461021557610109565b806306fdde031461010d578063095ea7b31461012b57806318160ddd1461015b57806323b872dd14610179575b5f5ffd5b61011561035b565b6040516101229190610fec565b60405180910390f35b6101456004803603810190610140919061109d565b6103eb565b60405161015291906110f5565b60405180910390f35b61016361040d565b604051610170919061111d565b60405180910390f35b610193600480360381019061018e9190611136565b610416565b6040516101a091906110f5565b60405180910390f35b6101b1610444565b6040516101be91906111a1565b60405180910390f35b6101cf61044c565b6040516101dc919061111d565b60405180910390f35b6101ff60048036038101906101fa91906111ba565b61045c565b60405161020c919061111d565b60405180910390f35b61021d6104a1565b005b6102276104b4565b60405161023491906111f4565b60405180910390f35b6102456104dc565b6040516102529190610fec565b60405180910390f35b6102756004803603810190610270919061109d565b61056c565b005b610291600480360381019061028c919061109d565b610614565b60405161029e91906110f5565b60405180910390f35b6102c160048036038101906102bc91906111ba565b610636565b6040516102ce91906110f5565b60405180910390f35b6102f160048036038101906102ec919061120d565b610653565b005b61030d60048036038101906103089190611238565b6106fa565b60405161031a919061111d565b60405180910390f35b61033d600480360381019061033891906112a0565b61077c565b005b610359600480360381019061035491906111ba565b61082a565b005b60606003805461036a9061130b565b80601f01602080910402602001604051908101604052809291908181526020018280546103969061130b565b80156103e15780601f106103b8576101008083540402835291602001916103e1565b820191905f5260205f20905b8154815290600101906020018083116103c457829003601f168201915b5050505050905090565b5f5f6103f56108ae565b90506104028185856108b5565b600191505092915050565b5f600254905090565b5f5f6104206108ae565b905061042d8582856108c7565b61043885858561095a565b60019150509392505050565b5f6012905090565b6b033b2e3c9fd0803ce800000081565b5f5f5f8373ffffffffffffffffffffffffffffffffffffffff1673ffffffffffffffffffffffffffffffffffffffff1681526020019081526020015f20549050919050565b6104a9610a4a565b6104b25f610ad1565b565b5f60055f9054906101000a900473ffffffffffffffffffffffffffffffffffffffff16905090565b6060600480546104eb9061130b565b80601f01602080910402602001604051908101604052809291908181526020018280546105179061130b565b80156105625780601f1061053957610100808354040283529160200191610562565b820191905f5260205f20905b81548152906001019060200180831161054557829003601f168201915b5050505050905090565b806105763061045c565b10156105b7576040517f08c379a00000000000000000000000000000000000000000000000000000000081526004016105ae90611385565b60405180910390fd5b6105c230838361095a565b8173ffffffffffffffffffffffffffffffffffffffff167fdf29796aad820e4bb192f3a8d631b76519bcd2cbe77cc85af20e9df53cece08682604051610608919061111d565b60405180910390a25050565b5f5f61061e6108ae565b905061062b81858561095a565b600191505092915050565b6006602052805f5260405f205f915054906101000a900460ff1681565b8061065d3361045c565b101561069e576040517f08c379a0000000000000000000000000000000000000000000000000000000008152600401610695906113ed565b60405180910390fd5b6106a933308361095a565b3373ffffffffffffffffffffffffffffffffffffffff167f8fe10ae416f22f5e5220b0018a6c1d4ff534d6aa3a471f2a20cb7747fe63e5b9826040516106ef919061111d565b60405180910390a250565b5f60015f8473ffffffffffffffffffffffffffffffffffffffff1673ffffffffffffffffffffffffffffffffffffffff1681526020019081526020015f205f8373ffffffffffffffffffffffffffffffffffffffff1673ffffffffffffffffffffffffffffffffffffffff1681526020019081526020015f2054905092915050565b610784610a4a565b8060065f8473ffffffffffffffffffffffffffffffffffffffff1673ffffffffffffffffffffffffffffffffffffffff1681526020019081526020015f205f6101000a81548160ff0219169083151502179055508173ffffffffffffffffffffffffffffffffffffffff167fc936f7a8a6310ab78bd6b9511512cdafe013059b538eb3562085b0497f5faabf8260405161081e91906110f5565b60405180910390a25050565b610832610a4a565b5f73ffffffffffffffffffffffffffffffffffffffff168173ffffffffffffffffffffffffffffffffffffffff16036108a2575f6040517f1e4fbdf700000000000000000000000000000000000000000000000000000000815260040161089991906111f4565b60405180910390fd5b6108ab81610ad1565b50565b5f33905090565b6108c28383836001610b94565b505050565b5f6108d284846106fa565b90507fffffffffffffffffffffffffffffffffffffffffffffffffffffffffffffffff8110156109545781811015610945578281836040517ffb8f41b200000000000000000000000000000000000000000000000000000000815260040161093c9392919061140b565b60405180910390fd5b61095384848484035f610b94565b5b50505050565b5f73ffffffffffffffffffffffffffffffffffffffff168373ffffffffffffffffffffffffffffffffffffffff16036109ca575f6040517f96c6fd1e0000000000000000000000000000000000000000000000000000000081526004016109c191906111f4565b60405180910390fd5b5f73ffffffffffffffffffffffffffffffffffffffff168273ffffffffffffffffffffffffffffffffffffffff1603610a3a575f6040517fec442f05000000000000000000000000000000000000000000000000000000008152600401610a3191906111f4565b60405180910390fd5b610a45838383610d63565b505050565b610a526108ae565b73ffffffffffffffffffffffffffffffffffffffff16610a706104b4565b73ffffffffffffffffffffffffffffffffffffffff1614610acf57610a936108ae565b6040517f118cdaa7000000000000000000000000000000000000000000000000000000008152600401610ac691906111f4565b60405180910390fd5b565b5f60055f9054906101000a900473ffffffffffffffffffffffffffffffffffffffff1690508160055f6101000a81548173ffffffffffffffffffffffffffffffffffffffff021916908373ffffffffffffffffffffffffffffffffffffffff1602179055508173ffffffffffffffffffffffffffffffffffffffff168173ffffffffffffffffffffffffffffffffffffffff167f8be0079c531659141344cd1fd0a4f28419497f9722a3daafe3b4186f6b6457e060405160405180910390a35050565b5f73ffffffffffffffffffffffffffffffffffffffff168473ffffffffffffffffffffffffffffffffffffffff1603610c04575f6040517fe602df05000000000000000000000000000000000000000000000000000000008152600401610bfb91906111f4565b60405180910390fd5b5f73ffffffffffffffffffffffffffffffffffffffff168373ffffffffffffffffffffffffffffffffffffffff1603610c74575f6040517f94280d62000000000000000000000000000000000000000000000000000000008152600401610c6b91906111f4565b60405180910390fd5b8160015f8673ffffffffffffffffffffffffffffffffffffffff1673ffffffffffffffffffffffffffffffffffffffff1681526020019081526020015f205f8573ffffffffffffffffffffffffffffffffffffffff1673ffffffffffffffffffffffffffffffffffffffff1681526020019081526020015f20819055508015610d5d578273ffffffffffffffffffffffffffffffffffffffff168473ffffffffffffffffffffffffffffffffffffffff167f8c5be1e5ebec7d5bd14f71427d1e84f3dd0314c0f7b2291e5b200ac8c7c3b92584604051610d54919061111d565b60405180910390a35b50505050565b5f73ffffffffffffffffffffffffffffffffffffffff168373ffffffffffffffffffffffffffffffffffffffff1603610db3578060025f828254610da7919061146d565b92505081905550610e81565b5f5f5f8573ffffffffffffffffffffffffffffffffffffffff1673ffffffffffffffffffffffffffffffffffffffff1681526020019081526020015f2054905081811015610e3c578381836040517fe450d38c000000000000000000000000000000000000000000000000000000008152600401610e339392919061140b565b60405180910390fd5b8181035f5f8673ffffffffffffffffffffffffffffffffffffffff1673ffffffffffffffffffffffffffffffffffffffff1681526020019081526020015f2081905550505b5f73ffffffffffffffffffffffffffffffffffffffff168273ffffffffffffffffffffffffffffffffffffffff1603610ec8578060025f8282540392505081905550610f12565b805f5f8473ffffffffffffffffffffffffffffffffffffffff1673ffffffffffffffffffffffffffffffffffffffff1681526020019081526020015f205f82825401925050819055505b8173ffffffffffffffffffffffffffffffffffffffff168373ffffffffffffffffffffffffffffffffffffffff167fddf252ad1be2c89b69c2b068fc378daa952ba7f163c4a11628f55a4df523b3ef83604051610f6f919061111d565b60405180910390a3505050565b5f81519050919050565b5f82825260208201905092915050565b8281835e5f83830152505050565b5f601f19601f8301169050919050565b5f610fbe82610f7c565b610fc88185610f86565b9350610fd8818560208601610f96565b610fe181610fa4565b840191505092915050565b5f6020820190508181035f8301526110048184610fb4565b905092915050565b5f5ffd5b5f73ffffffffffffffffffffffffffffffffffffffff82169050919050565b5f61103982611010565b9050919050565b6110498161102f565b8114611053575f5ffd5b50565b5f8135905061106481611040565b92915050565b5f819050919050565b61107c8161106a565b8114611086575f5ffd5b50565b5f8135905061109781611073565b92915050565b5f5f604083850312156110b3576110b261100c565b5b5f6110c085828601611056565b92505060206110d185828601611089565b9150509250929050565b5f8115159050919050565b6110ef816110db565b82525050565b5f6020820190506111085f8301846110e6565b92915050565b6111178161106a565b82525050565b5f6020820190506111305f83018461110e565b92915050565b5f5f5f6060848603121561114d5761114c61100c565b5b5f61115a86828701611056565b935050602061116b86828701611056565b925050604061117c86828701611089565b9150509250925092565b5f60ff82169050919050565b61119b81611186565b82525050565b5f6020820190506111b45f830184611192565b92915050565b5f602082840312156111cf576111ce61100c565b5b5f6111dc84828501611056565b91505092915050565b6111ee8161102f565b82525050565b5f6020820190506112075f8301846111e5565b92915050565b5f602082840312156112225761122161100c565b5b5f61122f84828501611089565b91505092915050565b5f5f6040838503121561124e5761124d61100c565b5b5f61125b85828601611056565b925050602061126c85828601611056565b9150509250929050565b61127f816110db565b8114611289575f5ffd5b50565b5f8135905061129a81611276565b92915050565b5f5f604083850312156112b6576112b561100c565b5b5f6112c385828601611056565b92505060206112d48582860161128c565b9150509250929050565b7f4e487b71000000000000000000000000000000000000000000000000000000005f52602260045260245ffd5b5f600282049050600182168061132257607f821691505b602082108103611335576113346112de565b5b50919050565b7f496e73756666696369656e7420636f6e74726163742062616c616e63650000005f82015250565b5f61136f601d83610f86565b915061137a8261133b565b602082019050919050565b5f6020820190508181035f83015261139c81611363565b9050919050565b7f496e73756666696369656e742062616c616e63650000000000000000000000005f82015250565b5f6113d7601483610f86565b91506113e2826113a3565b602082019050919050565b5f6020820190508181035f830152611404816113cb565b9050919050565b5f60608201905061141e5f8301866111e5565b61142b602083018561110e565b611438604083018461110e565b949350505050565b7f4e487b71000000000000000000000000000000000000000000000000000000005f52601160045260245ffd5b5f6114778261106a565b91506114828361106a565b925082820190508082111561149a57611499611440565b5b9291505056fea26469706673582212209aa4aea0013c4127162066a4d1dcdccebf86ad7e21b2f932d3590db3c855fd1764736f6c634300081c0033","linkReferences":{}},"methodIdentifiers":{"MAX_SUPPLY()":"32cb6b0c","allowance(address,address)":"dd62ed3e","approve(address,uint256)":"095ea7b3","authorizedContracts(address)":"d5b9221b","balanceOf(address)":"70a08231","decimals()":"313ce567","depositTokens(uint256)":"dd49756e","distributeRewards(address,uint256)":"a8031a1d","name()":"06fdde03","owner()":"8da5cb5b","renounceOwnership()":"715018a6","setAuthorizedContract(address,bool)":"f2fa7392","symbol()":"95d89b41","totalSupply()":"18160ddd","transfer(address,uint256)":"a9059cbb","transferFrom(address,address,uint256)":"23b872dd","transferOwnership(address)":"f2fde38b"},"id":38}