{"abi":[{"type":"constructor","inputs":[{"name":"_desciTokenAddress","type":"address","internalType":"address"}],"stateMutability":"nonpayable"},{"type":"function","name":"_isOwnerOrCollaborator","inputs":[{"name":"_tokenId","type":"uint256","internalType":"uint256"},{"name":"_account","type":"address","internalType":"address"}],"outputs":[{"name":"","type":"bool","internalType":"bool"}],"stateMutability":"view"},{"type":"function","name":"approve","inputs":[{"name":"to","type":"address","internalType":"address"},{"name":"tokenId","type":"uint256","internalType":"uint256"}],"outputs":[],"stateMutability":"nonpayable"},{"type":"function","name":"assignCollaborator","inputs":[{"name":"_tokenId","type":"uint256","internalType":"uint256"},{"name":"_collaborator","type":"address","internalType":"address"},{"name":"_expires","type":"uint64","internalType":"uint64"}],"outputs":[],"stateMutability":"nonpayable"},{"type":"function","name":"balanceOf","inputs":[{"name":"owner","type":"address","internalType":"address"}],"outputs":[{"name":"","type":"uint256","internalType":"uint256"}],"stateMutability":"view"},{"type":"function","name":"collaborators","inputs":[{"name":"","type":"uint256","internalType":"uint256"}],"outputs":[{"name":"collaborator","type":"address","internalType":"address"},{"name":"expires","type":"uint64","internalType":"uint64"}],"stateMutability":"view"},{"type":"function","name":"createResearch","inputs":[{"name":"_title","type":"string","internalType":"string"},{"name":"_metadataURI","type":"string","internalType":"string"}],"outputs":[],"stateMutability":"nonpayable"},{"type":"function","name":"desciToken","inputs":[],"outputs":[{"name":"","type":"address","internalType":"contract DeSciToken"}],"stateMutability":"view"},{"type":"function","name":"getApproved","inputs":[{"name":"tokenId","type":"uint256","internalType":"uint256"}],"outputs":[{"name":"","type":"address","internalType":"address"}],"stateMutability":"view"},{"type":"function","name":"getCollaborations","inputs":[{"name":"_user","type":"address","internalType":"address"}],"outputs":[{"name":"","type":"uint256[]","internalType":"uint256[]"}],"stateMutability":"view"},{"type":"function","name":"getLatestResearch","inputs":[{"name":"_tokenId","type":"uint256","internalType":"uint256"}],"outputs":[{"name":"","type":"string","internalType":"string"},{"name":"","type":"string","internalType":"string"},{"name":"","type":"uint256","internalType":"uint256"}],"stateMutability":"view"},{"type":"function","name":"getResearchVersion","inputs":[{"name":"_tokenId","type":"uint256","internalType":"uint256"},{"name":"_version","type":"uint256","internalType":"uint256"}],"outputs":[{"name":"","type":"string","internalType":"string"}],"stateMutability":"view"},{"type":"function","name":"isApprovedForAll","inputs":[{"name":"owner","type":"address","internalType":"address"},{"name":"operator","type":"address","internalType":"address"}],"outputs":[{"name":"","type":"bool","internalType":"bool"}],"stateMutability":"view"},{"type":"function","name":"name","inputs":[],"outputs":[{"name":"","type":"string","internalType":"string"}],"stateMutability":"view"},{"type":"function","name":"owner","inputs":[],"outputs":[{"name":"","type":"address","internalType":"address"}],"stateMutability":"view"},{"type":"function","name":"ownerOf","inputs":[{"name":"tokenId","type":"uint256","internalType":"uint256"}],"outputs":[{"name":"","type":"address","internalType":"address"}],"stateMutability":"view"},{"type":"function","name":"renounceOwnership","inputs":[],"outputs":[],"stateMutability":"nonpayable"},{"type":"function","name":"researchData","inputs":[{"name":"","type":"uint256","internalType":"uint256"}],"outputs":[{"name":"title","type":"string","internalType":"string"},{"name":"currentVersion","type":"uint256","internalType":"uint256"}],"stateMutability":"view"},{"type":"function","name":"safeTransferFrom","inputs":[{"name":"from","type":"address","internalType":"address"},{"name":"to","type":"address","internalType":"address"},{"name":"tokenId","type":"uint256","internalType":"uint256"}],"outputs":[],"stateMutability":"nonpayable"},{"type":"function","name":"safeTransferFrom","inputs":[{"name":"from","type":"address","internalType":"address"},{"name":"to","type":"address","internalType":"address"},{"name":"tokenId","type":"uint256","internalType":"uint256"},{"name":"data","type":"bytes","internalType":"bytes"}],"outputs":[],"stateMutability":"nonpayable"},{"type":"function","name":"setApprovalForAll","inputs":[{"name":"operator","type":"address","internalType":"address"},{"name":"approved","type":"bool","internalType":"bool"}],"outputs":[],"stateMutability":"nonpayable"},{"type":"function","name":"setUpdateReward","inputs":[{"name":"_newReward","type":"uint256","internalType":"uint256"}],"outputs":[],"stateMutability":"nonpayable"},{"type":"function","name":"supportsInterface","inputs":[{"name":"interfaceId","type":"bytes4","internalType":"bytes4"}],"outputs":[{"name":"","type":"bool","internalType":"bool"}],"stateMutability":"view"},{"type":"function","name":"symbol","inputs":[],"outputs":[{"name":"","type":"string","internalType":"string"}],"stateMutability":"view"},{"type":"function","name":"tokenURI","inputs":[{"name":"tokenId","type":"uint256","internalType":"uint256"}],"outputs":[{"name":"","type":"string","internalType":"string"}],"stateMutability":"view"},{"type":"function","name":"transferFrom","inputs":[{"name":"from","type":"address","internalType":"address"},{"name":"to","type":"address","internalType":"address"},{"name":"tokenId","type":"uint256","internalType":"uint256"}],"outputs":[],"stateMutability":"nonpayable"},{"type":"function","name":"transferOwnership","inputs":[{"name":"newOwner","type":"address","internalType":"address"}],"outputs":[],"stateMutability":"nonpayable"},{"type":"function","name":"updateResearch","inputs":[{"name":"_tokenId","type":"uint256","internalType":"uint256"},{"name":"_newMetadataURI","type":"string","internalType":"string"}],"outputs":[],"stateMutability":"nonpayable"},{"type":"function","name":"updateReward","inputs":[],"outputs":[{"name":"","type":"uint256","internalType":"uint256"}],"stateMutability":"view"},{"type":"function","name":"userCollaborations","inputs":[{"name":"","type":"address","internalType":"address"},{"name":"","type":"uint256","internalType":"uint256"}],"outputs":[{"name":"","type":"uint256","internalType":"uint256"}],"stateMutability":"view"},{"type":"event","name":"Approval","inputs":[{"name":"owner","type":"address","indexed":true,"internalType":"address"},{"name":"approved","type":"address","indexed":true,"internalType":"address"},{"name":"tokenId","type":"uint256","indexed":true,"internalType":"uint256"}],"anonymous":false},{"type":"event","name":"ApprovalForAll","inputs":[{"name":"owner","type":"address","indexed":true,"internalType":"address"},{"name":"operator","type":"address","indexed":true,"internalType":"address"},{"name":"approved","type":"bool","indexed":false,"internalType":"bool"}],"anonymous":false},{"type":"event","name":"BatchMetadataUpdate","inputs":[{"name":"_fromTokenId","type":"uint256","indexed":false,"internalType":"uint256"},{"name":"_toTokenId","type":"uint256","indexed":false,"internalType":"uint256"}],"anonymous":false},{"type":"event","name":"CollaboratorAssigned","inputs":[{"name":"tokenId","type":"uint256","indexed":true,"internalType":"uint256"},{"name":"collaborator","type":"address","indexed":true,"internalType":"address"},{"name":"expires","type":"uint64","indexed":false,"internalType":"uint64"}],"anonymous":false},{"type":"event","name":"MetadataUpdate","inputs":[{"name":"_tokenId","type":"uint256","indexed":false,"internalType":"uint256"}],"anonymous":false},{"type":"event","name":"OwnershipTransferred","inputs":[{"name":"previousOwner","type":"address","indexed":true,"internalType":"address"},{"name":"newOwner","type":"address","indexed":true,"internalType":"address"}],"anonymous":false},{"type":"event","name":"ResearchCreated","inputs":[{"name":"tokenId","type":"uint256","indexed":true,"internalType":"uint256"},{"name":"title","type":"string","indexed":false,"internalType":"string"},{"name":"metadataURI","type":"string","indexed":false,"internalType":"string"}],"anonymous":false},{"type":"event","name":"ResearchUpdated","inputs":[{"name":"tokenId","type":"uint256","indexed":true,"internalType":"uint256"},{"name":"newVersion","type":"uint256","indexed":false,"internalType":"uint256"},{"name":"newMetadataURI","type":"string","indexed":false,"internalType":"string"}],"anonymous":false},{"type":"event","name":"Transfer","inputs":[{"name":"from","type":"address","indexed":true,"internalType":"address"},{"name":"to","type":"address","indexed":true,"internalType":"address"},{"name":"tokenId","type":"uint256","indexed":true,"internalType":"uint256"}],"anonymous":false},{"type":"error","name":"ERC721IncorrectOwner","inputs":[{"name":"sender","type":"address","internalType":"address"},{"name":"tokenId","type":"uint256","internalType":"uint256"},{"name":"owner","type":"address","internalType":"address"}]},{"type":"error","name":"ERC721InsufficientApproval","inputs":[{"name":"operator","type":"address","internalType":"address"},{"name":"tokenId","type":"uint256","internalType":"uint256"}]},{"type":"error","name":"ERC721InvalidApprover","inputs":[{"name":"approver","type":"address","internalType":"address"}]},{"type":"error","name":"ERC721InvalidOperator","inputs":[{"name":"operator","type":"address","internalType":"address"}]},{"type":"error","name":"ERC721InvalidOwner","inputs":[{"name":"owner","type":"address","internalType":"address"}]},{"type":"error","name":"ERC721InvalidReceiver","inputs":[{"name":"receiver","type":"address","internalType":"address"}]},{"type":"error","name":"ERC721InvalidSender","inputs":[{"name":"sender","type":"address","internalType":"address"}]},{"type":"error","name":"ERC721NonexistentToken","inputs":[{"name":"tokenId","type":"uint256","internalType":"uint256"}]},{"type":"error","name":"OwnableInvalidOwner","inputs":[{"name":"owner","type":"address","internalType":"address"}]},{"type":"error","name":"OwnableUnauthorizedAccount","inputs":[{"name":"account","type":"address","internalType":"address"}]}],"bytecode":{"object":"0x608060405268056bc75e2d63100000600d5534801561001c575f5ffd5b50604051613c7b380380613c7b833981810160405281019061003e91906102b3565b336040518060400160405280600b81526020017f52657365617263684e46540000000000000000000000000000000000000000008152506040518060400160405280600681526020017f5253434e46540000000000000000000000000000000000000000000000000000815250815f90816100b9919061051b565b5080600190816100c9919061051b565b5050505f73ffffffffffffffffffffffffffffffffffffffff168173ffffffffffffffffffffffffffffffffffffffff160361013c575f6040517f1e4fbdf700000000000000000000000000000000000000000000000000000000815260040161013391906105f9565b60405180910390fd5b61014b8161019260201b60201c565b5080600c5f6101000a81548173ffffffffffffffffffffffffffffffffffffffff021916908373ffffffffffffffffffffffffffffffffffffffff16021790555050610612565b5f60075f9054906101000a900473ffffffffffffffffffffffffffffffffffffffff1690508160075f6101000a81548173ffffffffffffffffffffffffffffffffffffffff021916908373ffffffffffffffffffffffffffffffffffffffff1602179055508173ffffffffffffffffffffffffffffffffffffffff168173ffffffffffffffffffffffffffffffffffffffff167f8be0079c531659141344cd1fd0a4f28419497f9722a3daafe3b4186f6b6457e060405160405180910390a35050565b5f5ffd5b5f73ffffffffffffffffffffffffffffffffffffffff82169050919050565b5f61028282610259565b9050919050565b61029281610278565b811461029c575f5ffd5b50565b5f815190506102ad81610289565b92915050565b5f602082840312156102c8576102c7610255565b5b5f6102d58482850161029f565b91505092915050565b5f81519050919050565b7f4e487b71000000000000000000000000000000000000000000000000000000005f52604160045260245ffd5b7f4e487b71000000000000000000000000000000000000000000000000000000005f52602260045260245ffd5b5f600282049050600182168061035957607f821691505b60208210810361036c5761036b610315565b5b50919050565b5f819050815f5260205f209050919050565b5f6020601f8301049050919050565b5f82821b905092915050565b5f600883026103ce7fffffffffffffffffffffffffffffffffffffffffffffffffffffffffffffffff82610393565b6103d88683610393565b95508019841693508086168417925050509392505050565b5f819050919050565b5f819050919050565b5f61041c610417610412846103f0565b6103f9565b6103f0565b9050919050565b5f819050919050565b61043583610402565b61044961044182610423565b84845461039f565b825550505050565b5f5f905090565b610460610451565b61046b81848461042c565b505050565b5b8181101561048e576104835f82610458565b600181019050610471565b5050565b601f8211156104d3576104a481610372565b6104ad84610384565b810160208510156104bc578190505b6104d06104c885610384565b830182610470565b50505b505050565b5f82821c905092915050565b5f6104f35f19846008026104d8565b1980831691505092915050565b5f61050b83836104e4565b9150826002028217905092915050565b610524826102de565b67ffffffffffffffff81111561053d5761053c6102e8565b5b6105478254610342565b610552828285610492565b5f60209050601f831160018114610583575f8415610571578287015190505b61057b8582610500565b8655506105e2565b601f19841661059186610372565b5f5b828110156105b857848901518255600182019150602085019450602081019050610593565b868310156105d557848901516105d1601f8916826104e4565b8355505b6001600288020188555050505b505050505050565b6105f381610278565b82525050565b5f60208201905061060c5f8301846105ea565b92915050565b61365c8061061f5f395ff3fe608060405234801561000f575f5ffd5b50600436106101cd575f3560e01c806370a0823111610102578063b88d4fde116100a0578063c87b56dd1161006f578063c87b56dd14610563578063e985e9c514610593578063f2fde38b146105c3578063f36c0a72146105df576101cd565b8063b88d4fde146104cb578063c045863f146104e7578063c1c62ad614610503578063c57d308714610533576101cd565b80639490a82e116100dc5780639490a82e1461044457806395d89b4114610475578063977905c014610493578063a22cb465146104af576101cd565b806370a08231146103ec578063715018a61461041c5780638da5cb5b14610426576101cd565b806320c215171161016f57806342842e0e1161014957806342842e0e146103525780636002b50b1461036e5780636352211e1461038c57806365fe3b1d146103bc576101cd565b806320c21517146102fe57806323b872dd1461031a5780633849af2e14610336576101cd565b8063095ea7b3116101ab578063095ea7b31461024f5780631dc3a36d1461026b5780631f4eb8831461029c57806320a23863146102ce576101cd565b806301ffc9a7146101d157806306fdde0314610201578063081812fc1461021f575b5f5ffd5b6101eb60048036038101906101e69190612610565b6105fd565b6040516101f89190612655565b60405180910390f35b61020961065d565b60405161021691906126de565b60405180910390f35b61023960048036038101906102349190612731565b6106ec565b604051610246919061279b565b60405180910390f35b610269600480360381019061026491906127de565b610707565b005b61028560048036038101906102809190612731565b61071d565b60405161029392919061283e565b60405180910390f35b6102b660048036038101906102b19190612731565b61076f565b6040516102c593929190612874565b60405180910390f35b6102e860048036038101906102e391906127de565b6108c8565b6040516102f591906128b7565b60405180910390f35b61031860048036038101906103139190612731565b6108f3565b005b610334600480360381019061032f91906128d0565b610905565b005b610350600480360381019061034b9190612a4c565b610a04565b005b61036c600480360381019061036791906128d0565b610b77565b005b610376610b96565b6040516103839190612b01565b60405180910390f35b6103a660048036038101906103a19190612731565b610bbb565b6040516103b3919061279b565b60405180910390f35b6103d660048036038101906103d19190612b1a565b610bcc565b6040516103e391906126de565b60405180910390f35b61040660048036038101906104019190612b58565b610ce2565b60405161041391906128b7565b60405180910390f35b610424610d98565b005b61042e610dab565b60405161043b919061279b565b60405180910390f35b61045e60048036038101906104599190612731565b610dd3565b60405161046c929190612b83565b60405180910390f35b61047d610e79565b60405161048a91906126de565b60405180910390f35b6104ad60048036038101906104a89190612bdb565b610f09565b005b6104c960048036038101906104c49190612c55565b6110ef565b005b6104e560048036038101906104e09190612d31565b611105565b005b61050160048036038101906104fc9190612db1565b61112a565b005b61051d60048036038101906105189190612b58565b6111e8565b60405161052a9190612ede565b60405180910390f35b61054d60048036038101906105489190612efe565b61127b565b60405161055a9190612655565b60405180910390f35b61057d60048036038101906105789190612731565b61135c565b60405161058a91906126de565b60405180910390f35b6105ad60048036038101906105a89190612f3c565b611467565b6040516105ba9190612655565b60405180910390f35b6105dd60048036038101906105d89190612b58565b6114f5565b005b6105e7611579565b6040516105f491906128b7565b60405180910390f35b5f634906490660e01b7bffffffffffffffffffffffffffffffffffffffffffffffffffffffff1916827bffffffffffffffffffffffffffffffffffffffffffffffffffffffff1916148061065657506106558261157f565b5b9050919050565b60605f805461066b90612fa7565b80601f016020809104026020016040519081016040528092919081815260200182805461069790612fa7565b80156106e25780601f106106b9576101008083540402835291602001916106e2565b820191905f5260205f20905b8154815290600101906020018083116106c557829003601f168201915b5050505050905090565b5f6106f682611660565b50610700826116e6565b9050919050565b610719828261071461171f565b611726565b5050565b600a602052805f5260405f205f91509050805f015f9054906101000a900473ffffffffffffffffffffffffffffffffffffffff1690805f0160149054906101000a900467ffffffffffffffff16905082565b6060805f5f60095f8681526020019081526020015f209050805f01816002015f836001015481526020019081526020015f2082600101548280546107b290612fa7565b80601f01602080910402602001604051908101604052809291908181526020018280546107de90612fa7565b80156108295780601f1061080057610100808354040283529160200191610829565b820191905f5260205f20905b81548152906001019060200180831161080c57829003601f168201915b5050505050925081805461083c90612fa7565b80601f016020809104026020016040519081016040528092919081815260200182805461086890612fa7565b80156108b35780601f1061088a576101008083540402835291602001916108b3565b820191905f5260205f20905b81548152906001019060200180831161089657829003601f168201915b50505050509150935093509350509193909250565b600b602052815f5260405f2081815481106108e1575f80fd5b905f5260205f20015f91509150505481565b6108fb611738565b80600d8190555050565b5f73ffffffffffffffffffffffffffffffffffffffff168273ffffffffffffffffffffffffffffffffffffffff1603610975575f6040517f64a0ae9200000000000000000000000000000000000000000000000000000000815260040161096c919061279b565b60405180910390fd5b5f610988838361098361171f565b6117bf565b90508373ffffffffffffffffffffffffffffffffffffffff168173ffffffffffffffffffffffffffffffffffffffff16146109fe578382826040517f64283d7b0000000000000000000000000000000000000000000000000000000081526004016109f593929190612fd7565b60405180910390fd5b50505050565b610a0e823361127b565b610a4d576040517f08c379a0000000000000000000000000000000000000000000000000000000008152600401610a4490613056565b60405180910390fd5b5f60095f8481526020019081526020015f209050806001015f815480929190610a75906130a1565b919050555081816002015f836001015481526020019081526020015f209081610a9e919061327f565b50610aa983836119ca565b600c5f9054906101000a900473ffffffffffffffffffffffffffffffffffffffff1673ffffffffffffffffffffffffffffffffffffffff1663a8031a1d33600d546040518363ffffffff1660e01b8152600401610b0792919061334e565b5f604051808303815f87803b158015610b1e575f5ffd5b505af1158015610b30573d5f5f3e3d5ffd5b50505050827fe27fa086afbab709d66f7575e2a788fcd452e87bf7c5409676647273fe63aecf826001015484604051610b6a929190613375565b60405180910390a2505050565b610b9183838360405180602001604052805f815250611105565b505050565b600c5f9054906101000a900473ffffffffffffffffffffffffffffffffffffffff1681565b5f610bc582611660565b9050919050565b60605f82118015610bf1575060095f8481526020019081526020015f20600101548211155b610c30576040517f08c379a0000000000000000000000000000000000000000000000000000000008152600401610c27906133ed565b60405180910390fd5b60095f8481526020019081526020015f206002015f8381526020019081526020015f208054610c5e90612fa7565b80601f0160208091040260200160405190810160405280929190818152602001828054610c8a90612fa7565b8015610cd55780601f10610cac57610100808354040283529160200191610cd5565b820191905f5260205f20905b815481529060010190602001808311610cb857829003601f168201915b5050505050905092915050565b5f5f73ffffffffffffffffffffffffffffffffffffffff168273ffffffffffffffffffffffffffffffffffffffff1603610d53575f6040517f89c62b64000000000000000000000000000000000000000000000000000000008152600401610d4a919061279b565b60405180910390fd5b60035f8373ffffffffffffffffffffffffffffffffffffffff1673ffffffffffffffffffffffffffffffffffffffff1681526020019081526020015f20549050919050565b610da0611738565b610da95f611a24565b565b5f60075f9054906101000a900473ffffffffffffffffffffffffffffffffffffffff16905090565b6009602052805f5260405f205f91509050805f018054610df290612fa7565b80601f0160208091040260200160405190810160405280929190818152602001828054610e1e90612fa7565b8015610e695780601f10610e4057610100808354040283529160200191610e69565b820191905f5260205f20905b815481529060010190602001808311610e4c57829003601f168201915b5050505050908060010154905082565b606060018054610e8890612fa7565b80601f0160208091040260200160405190810160405280929190818152602001828054610eb490612fa7565b8015610eff5780601f10610ed657610100808354040283529160200191610eff565b820191905f5260205f20905b815481529060010190602001808311610ee257829003601f168201915b5050505050905090565b3373ffffffffffffffffffffffffffffffffffffffff16610f2984610bbb565b73ffffffffffffffffffffffffffffffffffffffff1614610f7f576040517f08c379a0000000000000000000000000000000000000000000000000000000008152600401610f7690613455565b60405180910390fd5b60405180604001604052808373ffffffffffffffffffffffffffffffffffffffff1681526020018267ffffffffffffffff16815250600a5f8581526020019081526020015f205f820151815f015f6101000a81548173ffffffffffffffffffffffffffffffffffffffff021916908373ffffffffffffffffffffffffffffffffffffffff1602179055506020820151815f0160146101000a81548167ffffffffffffffff021916908367ffffffffffffffff160217905550905050600b5f8373ffffffffffffffffffffffffffffffffffffffff1673ffffffffffffffffffffffffffffffffffffffff1681526020019081526020015f2083908060018154018082558091505060019003905f5260205f20015f90919091909150558173ffffffffffffffffffffffffffffffffffffffff16837f348046f95b1983117393d71fa6d682e749692f1de58c4ddab7010681f06ab2cd836040516110e29190613473565b60405180910390a3505050565b6111016110fa61171f565b8383611ae7565b5050565b611110848484610905565b61112461111b61171f565b85858585611c50565b50505050565b5f60085f81548092919061113d906130a1565b91905055905061114d3382611dfc565b61115781836119ca565b5f60095f8381526020019081526020015f20905083815f01908161117b919061327f565b506001816001018190555082816002015f600181526020019081526020015f2090816111a7919061327f565b50817fc1eff5157a85c1c7940989c4d47768a8914aeb82c38aafa8fb28e4765c1f449785856040516111da92919061348c565b60405180910390a250505050565b6060600b5f8373ffffffffffffffffffffffffffffffffffffffff1673ffffffffffffffffffffffffffffffffffffffff1681526020019081526020015f2080548060200260200160405190810160405280929190818152602001828054801561126f57602002820191905f5260205f20905b81548152602001906001019080831161125b575b50505050509050919050565b5f8173ffffffffffffffffffffffffffffffffffffffff1661129c84610bbb565b73ffffffffffffffffffffffffffffffffffffffff16036112c05760019050611356565b5f600a5f8581526020019081526020015f2090508273ffffffffffffffffffffffffffffffffffffffff16815f015f9054906101000a900473ffffffffffffffffffffffffffffffffffffffff1673ffffffffffffffffffffffffffffffffffffffff161480156113525750805f0160149054906101000a900467ffffffffffffffff1667ffffffffffffffff164211155b9150505b92915050565b606061136782611660565b505f60065f8481526020019081526020015f20805461138590612fa7565b80601f01602080910402602001604051908101604052809291908181526020018280546113b190612fa7565b80156113fc5780601f106113d3576101008083540402835291602001916113fc565b820191905f5260205f20905b8154815290600101906020018083116113df57829003601f168201915b505050505090505f61140c611e19565b90505f815103611420578192505050611462565b5f8251111561145457808260405160200161143c9291906134fb565b60405160208183030381529060405292505050611462565b61145d84611e2f565b925050505b919050565b5f60055f8473ffffffffffffffffffffffffffffffffffffffff1673ffffffffffffffffffffffffffffffffffffffff1681526020019081526020015f205f8373ffffffffffffffffffffffffffffffffffffffff1673ffffffffffffffffffffffffffffffffffffffff1681526020019081526020015f205f9054906101000a900460ff16905092915050565b6114fd611738565b5f73ffffffffffffffffffffffffffffffffffffffff168173ffffffffffffffffffffffffffffffffffffffff160361156d575f6040517f1e4fbdf7000000000000000000000000000000000000000000000000000000008152600401611564919061279b565b60405180910390fd5b61157681611a24565b50565b600d5481565b5f7f80ac58cd000000000000000000000000000000000000000000000000000000007bffffffffffffffffffffffffffffffffffffffffffffffffffffffff1916827bffffffffffffffffffffffffffffffffffffffffffffffffffffffff1916148061164957507f5b5e139f000000000000000000000000000000000000000000000000000000007bffffffffffffffffffffffffffffffffffffffffffffffffffffffff1916827bffffffffffffffffffffffffffffffffffffffffffffffffffffffff1916145b80611659575061165882611e95565b5b9050919050565b5f5f61166b83611efe565b90505f73ffffffffffffffffffffffffffffffffffffffff168173ffffffffffffffffffffffffffffffffffffffff16036116dd57826040517f7e2732890000000000000000000000000000000000000000000000000000000081526004016116d491906128b7565b60405180910390fd5b80915050919050565b5f60045f8381526020019081526020015f205f9054906101000a900473ffffffffffffffffffffffffffffffffffffffff169050919050565b5f33905090565b6117338383836001611f37565b505050565b61174061171f565b73ffffffffffffffffffffffffffffffffffffffff1661175e610dab565b73ffffffffffffffffffffffffffffffffffffffff16146117bd5761178161171f565b6040517f118cdaa70000000000000000000000000000000000000000000000000000000081526004016117b4919061279b565b60405180910390fd5b565b5f5f6117ca84611efe565b90505f73ffffffffffffffffffffffffffffffffffffffff168373ffffffffffffffffffffffffffffffffffffffff161461180b5761180a8184866120f6565b5b5f73ffffffffffffffffffffffffffffffffffffffff168173ffffffffffffffffffffffffffffffffffffffff16146118965761184a5f855f5f611f37565b600160035f8373ffffffffffffffffffffffffffffffffffffffff1673ffffffffffffffffffffffffffffffffffffffff1681526020019081526020015f205f82825403925050819055505b5f73ffffffffffffffffffffffffffffffffffffffff168573ffffffffffffffffffffffffffffffffffffffff161461191557600160035f8773ffffffffffffffffffffffffffffffffffffffff1673ffffffffffffffffffffffffffffffffffffffff1681526020019081526020015f205f82825401925050819055505b8460025f8681526020019081526020015f205f6101000a81548173ffffffffffffffffffffffffffffffffffffffff021916908373ffffffffffffffffffffffffffffffffffffffff160217905550838573ffffffffffffffffffffffffffffffffffffffff168273ffffffffffffffffffffffffffffffffffffffff167fddf252ad1be2c89b69c2b068fc378daa952ba7f163c4a11628f55a4df523b3ef60405160405180910390a4809150509392505050565b8060065f8481526020019081526020015f2090816119e8919061327f565b507ff8e1a15aba9398e019f0b49df1a4fde98ee17ae345cb5f6b5e2c27f5033e8ce782604051611a1891906128b7565b60405180910390a15050565b5f60075f9054906101000a900473ffffffffffffffffffffffffffffffffffffffff1690508160075f6101000a81548173ffffffffffffffffffffffffffffffffffffffff021916908373ffffffffffffffffffffffffffffffffffffffff1602179055508173ffffffffffffffffffffffffffffffffffffffff168173ffffffffffffffffffffffffffffffffffffffff167f8be0079c531659141344cd1fd0a4f28419497f9722a3daafe3b4186f6b6457e060405160405180910390a35050565b5f73ffffffffffffffffffffffffffffffffffffffff168273ffffffffffffffffffffffffffffffffffffffff1603611b5757816040517f5b08ba18000000000000000000000000000000000000000000000000000000008152600401611b4e919061279b565b60405180910390fd5b8060055f8573ffffffffffffffffffffffffffffffffffffffff1673ffffffffffffffffffffffffffffffffffffffff1681526020019081526020015f205f8473ffffffffffffffffffffffffffffffffffffffff1673ffffffffffffffffffffffffffffffffffffffff1681526020019081526020015f205f6101000a81548160ff0219169083151502179055508173ffffffffffffffffffffffffffffffffffffffff168373ffffffffffffffffffffffffffffffffffffffff167f17307eab39ab6107e8899845ad3d59bd9653f200f220920489ca2b5937696c3183604051611c439190612655565b60405180910390a3505050565b5f8373ffffffffffffffffffffffffffffffffffffffff163b1115611df5578273ffffffffffffffffffffffffffffffffffffffff1663150b7a02868685856040518563ffffffff1660e01b8152600401611cae9493929190613570565b6020604051808303815f875af1925050508015611ce957506040513d601f19601f82011682018060405250810190611ce691906135ce565b60015b611d6a573d805f8114611d17576040519150601f19603f3d011682016040523d82523d5f602084013e611d1c565b606091505b505f815103611d6257836040517f64a0ae92000000000000000000000000000000000000000000000000000000008152600401611d59919061279b565b60405180910390fd5b805181602001fd5b63150b7a0260e01b7bffffffffffffffffffffffffffffffffffffffffffffffffffffffff1916817bffffffffffffffffffffffffffffffffffffffffffffffffffffffff191614611df357836040517f64a0ae92000000000000000000000000000000000000000000000000000000008152600401611dea919061279b565b60405180910390fd5b505b5050505050565b611e15828260405180602001604052805f8152506121b9565b5050565b606060405180602001604052805f815250905090565b6060611e3a82611660565b505f611e44611e19565b90505f815111611e625760405180602001604052805f815250611e8d565b80611e6c846121dc565b604051602001611e7d9291906134fb565b6040516020818303038152906040525b915050919050565b5f7f01ffc9a7000000000000000000000000000000000000000000000000000000007bffffffffffffffffffffffffffffffffffffffffffffffffffffffff1916827bffffffffffffffffffffffffffffffffffffffffffffffffffffffff1916149050919050565b5f60025f8381526020019081526020015f205f9054906101000a900473ffffffffffffffffffffffffffffffffffffffff169050919050565b8080611f6f57505f73ffffffffffffffffffffffffffffffffffffffff168273ffffffffffffffffffffffffffffffffffffffff1614155b156120a1575f611f7e84611660565b90505f73ffffffffffffffffffffffffffffffffffffffff168373ffffffffffffffffffffffffffffffffffffffff1614158015611fe857508273ffffffffffffffffffffffffffffffffffffffff168173ffffffffffffffffffffffffffffffffffffffff1614155b8015611ffb5750611ff98184611467565b155b1561203d57826040517fa9fbf51f000000000000000000000000000000000000000000000000000000008152600401612034919061279b565b60405180910390fd5b811561209f57838573ffffffffffffffffffffffffffffffffffffffff168273ffffffffffffffffffffffffffffffffffffffff167f8c5be1e5ebec7d5bd14f71427d1e84f3dd0314c0f7b2291e5b200ac8c7c3b92560405160405180910390a45b505b8360045f8581526020019081526020015f205f6101000a81548173ffffffffffffffffffffffffffffffffffffffff021916908373ffffffffffffffffffffffffffffffffffffffff16021790555050505050565b6121018383836122a6565b6121b4575f73ffffffffffffffffffffffffffffffffffffffff168373ffffffffffffffffffffffffffffffffffffffff160361217557806040517f7e27328900000000000000000000000000000000000000000000000000000000815260040161216c91906128b7565b60405180910390fd5b81816040517f177e802f0000000000000000000000000000000000000000000000000000000081526004016121ab92919061334e565b60405180910390fd5b505050565b6121c38383612366565b6121d76121ce61171f565b5f858585611c50565b505050565b60605f60016121ea84612459565b0190505f8167ffffffffffffffff81111561220857612207612928565b5b6040519080825280601f01601f19166020018201604052801561223a5781602001600182028036833780820191505090505b5090505f82602001820190505b60011561229b578080600190039150507f3031323334353637383961626364656600000000000000000000000000000000600a86061a8153600a85816122905761228f6135f9565b5b0494505f8503612247575b819350505050919050565b5f5f73ffffffffffffffffffffffffffffffffffffffff168373ffffffffffffffffffffffffffffffffffffffff161415801561235d57508273ffffffffffffffffffffffffffffffffffffffff168473ffffffffffffffffffffffffffffffffffffffff16148061231e575061231d8484611467565b5b8061235c57508273ffffffffffffffffffffffffffffffffffffffff16612344836116e6565b73ffffffffffffffffffffffffffffffffffffffff16145b5b90509392505050565b5f73ffffffffffffffffffffffffffffffffffffffff168273ffffffffffffffffffffffffffffffffffffffff16036123d6575f6040517f64a0ae920000000000000000000000000000000000000000000000000000000081526004016123cd919061279b565b60405180910390fd5b5f6123e283835f6117bf565b90505f73ffffffffffffffffffffffffffffffffffffffff168173ffffffffffffffffffffffffffffffffffffffff1614612454575f6040517f73c6ac6e00000000000000000000000000000000000000000000000000000000815260040161244b919061279b565b60405180910390fd5b505050565b5f5f5f90507a184f03e93ff9f4daa797ed6e38ed64bf6a1f01000000000000000083106124b5577a184f03e93ff9f4daa797ed6e38ed64bf6a1f01000000000000000083816124ab576124aa6135f9565b5b0492506040810190505b6d04ee2d6d415b85acef810000000083106124f2576d04ee2d6d415b85acef810000000083816124e8576124e76135f9565b5b0492506020810190505b662386f26fc10000831061252157662386f26fc100008381612517576125166135f9565b5b0492506010810190505b6305f5e100831061254a576305f5e10083816125405761253f6135f9565b5b0492506008810190505b612710831061256f576127108381612565576125646135f9565b5b0492506004810190505b606483106125925760648381612588576125876135f9565b5b0492506002810190505b600a83106125a1576001810190505b80915050919050565b5f604051905090565b5f5ffd5b5f5ffd5b5f7fffffffff0000000000000000000000000000000000000000000000000000000082169050919050565b6125ef816125bb565b81146125f9575f5ffd5b50565b5f8135905061260a816125e6565b92915050565b5f60208284031215612625576126246125b3565b5b5f612632848285016125fc565b91505092915050565b5f8115159050919050565b61264f8161263b565b82525050565b5f6020820190506126685f830184612646565b92915050565b5f81519050919050565b5f82825260208201905092915050565b8281835e5f83830152505050565b5f601f19601f8301169050919050565b5f6126b08261266e565b6126ba8185612678565b93506126ca818560208601612688565b6126d381612696565b840191505092915050565b5f6020820190508181035f8301526126f681846126a6565b905092915050565b5f819050919050565b612710816126fe565b811461271a575f5ffd5b50565b5f8135905061272b81612707565b92915050565b5f60208284031215612746576127456125b3565b5b5f6127538482850161271d565b91505092915050565b5f73ffffffffffffffffffffffffffffffffffffffff82169050919050565b5f6127858261275c565b9050919050565b6127958161277b565b82525050565b5f6020820190506127ae5f83018461278c565b92915050565b6127bd8161277b565b81146127c7575f5ffd5b50565b5f813590506127d8816127b4565b92915050565b5f5f604083850312156127f4576127f36125b3565b5b5f612801858286016127ca565b92505060206128128582860161271d565b9150509250929050565b5f67ffffffffffffffff82169050919050565b6128388161281c565b82525050565b5f6040820190506128515f83018561278c565b61285e602083018461282f565b9392505050565b61286e816126fe565b82525050565b5f6060820190508181035f83015261288c81866126a6565b905081810360208301526128a081856126a6565b90506128af6040830184612865565b949350505050565b5f6020820190506128ca5f830184612865565b92915050565b5f5f5f606084860312156128e7576128e66125b3565b5b5f6128f4868287016127ca565b9350506020612905868287016127ca565b92505060406129168682870161271d565b9150509250925092565b5f5ffd5b5f5ffd5b7f4e487b71000000000000000000000000000000000000000000000000000000005f52604160045260245ffd5b61295e82612696565b810181811067ffffffffffffffff8211171561297d5761297c612928565b5b80604052505050565b5f61298f6125aa565b905061299b8282612955565b919050565b5f67ffffffffffffffff8211156129ba576129b9612928565b5b6129c382612696565b9050602081019050919050565b828183375f83830152505050565b5f6129f06129eb846129a0565b612986565b905082815260208101848484011115612a0c57612a0b612924565b5b612a178482856129d0565b509392505050565b5f82601f830112612a3357612a32612920565b5b8135612a438482602086016129de565b91505092915050565b5f5f60408385031215612a6257612a616125b3565b5b5f612a6f8582860161271d565b925050602083013567ffffffffffffffff811115612a9057612a8f6125b7565b5b612a9c85828601612a1f565b9150509250929050565b5f819050919050565b5f612ac9612ac4612abf8461275c565b612aa6565b61275c565b9050919050565b5f612ada82612aaf565b9050919050565b5f612aeb82612ad0565b9050919050565b612afb81612ae1565b82525050565b5f602082019050612b145f830184612af2565b92915050565b5f5f60408385031215612b3057612b2f6125b3565b5b5f612b3d8582860161271d565b9250506020612b4e8582860161271d565b9150509250929050565b5f60208284031215612b6d57612b6c6125b3565b5b5f612b7a848285016127ca565b91505092915050565b5f6040820190508181035f830152612b9b81856126a6565b9050612baa6020830184612865565b9392505050565b612bba8161281c565b8114612bc4575f5ffd5b50565b5f81359050612bd581612bb1565b92915050565b5f5f5f60608486031215612bf257612bf16125b3565b5b5f612bff8682870161271d565b9350506020612c10868287016127ca565b9250506040612c2186828701612bc7565b9150509250925092565b612c348161263b565b8114612c3e575f5ffd5b50565b5f81359050612c4f81612c2b565b92915050565b5f5f60408385031215612c6b57612c6a6125b3565b5b5f612c78858286016127ca565b9250506020612c8985828601612c41565b9150509250929050565b5f67ffffffffffffffff821115612cad57612cac612928565b5b612cb682612696565b9050602081019050919050565b5f612cd5612cd084612c93565b612986565b905082815260208101848484011115612cf157612cf0612924565b5b612cfc8482856129d0565b509392505050565b5f82601f830112612d1857612d17612920565b5b8135612d28848260208601612cc3565b91505092915050565b5f5f5f5f60808587031215612d4957612d486125b3565b5b5f612d56878288016127ca565b9450506020612d67878288016127ca565b9350506040612d788782880161271d565b925050606085013567ffffffffffffffff811115612d9957612d986125b7565b5b612da587828801612d04565b91505092959194509250565b5f5f60408385031215612dc757612dc66125b3565b5b5f83013567ffffffffffffffff811115612de457612de36125b7565b5b612df085828601612a1f565b925050602083013567ffffffffffffffff811115612e1157612e106125b7565b5b612e1d85828601612a1f565b9150509250929050565b5f81519050919050565b5f82825260208201905092915050565b5f819050602082019050919050565b612e59816126fe565b82525050565b5f612e6a8383612e50565b60208301905092915050565b5f602082019050919050565b5f612e8c82612e27565b612e968185612e31565b9350612ea183612e41565b805f5b83811015612ed1578151612eb88882612e5f565b9750612ec383612e76565b925050600181019050612ea4565b5085935050505092915050565b5f6020820190508181035f830152612ef68184612e82565b905092915050565b5f5f60408385031215612f1457612f136125b3565b5b5f612f218582860161271d565b9250506020612f32858286016127ca565b9150509250929050565b5f5f60408385031215612f5257612f516125b3565b5b5f612f5f858286016127ca565b9250506020612f70858286016127ca565b9150509250929050565b7f4e487b71000000000000000000000000000000000000000000000000000000005f52602260045260245ffd5b5f6002820490506001821680612fbe57607f821691505b602082108103612fd157612fd0612f7a565b5b50919050565b5f606082019050612fea5f83018661278c565b612ff76020830185612865565b613004604083018461278c565b949350505050565b7f4e6f7420617574686f72697a65640000000000000000000000000000000000005f82015250565b5f613040600e83612678565b915061304b8261300c565b602082019050919050565b5f6020820190508181035f83015261306d81613034565b9050919050565b7f4e487b71000000000000000000000000000000000000000000000000000000005f52601160045260245ffd5b5f6130ab826126fe565b91507fffffffffffffffffffffffffffffffffffffffffffffffffffffffffffffffff82036130dd576130dc613074565b5b600182019050919050565b5f819050815f5260205f209050919050565b5f6020601f8301049050919050565b5f82821b905092915050565b5f600883026131447fffffffffffffffffffffffffffffffffffffffffffffffffffffffffffffffff82613109565b61314e8683613109565b95508019841693508086168417925050509392505050565b5f61318061317b613176846126fe565b612aa6565b6126fe565b9050919050565b5f819050919050565b61319983613166565b6131ad6131a582613187565b848454613115565b825550505050565b5f5f905090565b6131c46131b5565b6131cf818484613190565b505050565b5b818110156131f2576131e75f826131bc565b6001810190506131d5565b5050565b601f82111561323757613208816130e8565b613211846130fa565b81016020851015613220578190505b61323461322c856130fa565b8301826131d4565b50505b505050565b5f82821c905092915050565b5f6132575f198460080261323c565b1980831691505092915050565b5f61326f8383613248565b9150826002028217905092915050565b6132888261266e565b67ffffffffffffffff8111156132a1576132a0612928565b5b6132ab8254612fa7565b6132b68282856131f6565b5f60209050601f8311600181146132e7575f84156132d5578287015190505b6132df8582613264565b865550613346565b601f1984166132f5866130e8565b5f5b8281101561331c578489015182556001820191506020850194506020810190506132f7565b868310156133395784890151613335601f891682613248565b8355505b6001600288020188555050505b505050505050565b5f6040820190506133615f83018561278c565b61336e6020830184612865565b9392505050565b5f6040820190506133885f830185612865565b818103602083015261339a81846126a6565b90509392505050565b7f496e76616c69642076657273696f6e00000000000000000000000000000000005f82015250565b5f6133d7600f83612678565b91506133e2826133a3565b602082019050919050565b5f6020820190508181035f830152613404816133cb565b9050919050565b7f4e6f7420746865206f776e6572000000000000000000000000000000000000005f82015250565b5f61343f600d83612678565b915061344a8261340b565b602082019050919050565b5f6020820190508181035f83015261346c81613433565b9050919050565b5f6020820190506134865f83018461282f565b92915050565b5f6040820190508181035f8301526134a481856126a6565b905081810360208301526134b881846126a6565b90509392505050565b5f81905092915050565b5f6134d58261266e565b6134df81856134c1565b93506134ef818560208601612688565b80840191505092915050565b5f61350682856134cb565b915061351282846134cb565b91508190509392505050565b5f81519050919050565b5f82825260208201905092915050565b5f6135428261351e565b61354c8185613528565b935061355c818560208601612688565b61356581612696565b840191505092915050565b5f6080820190506135835f83018761278c565b613590602083018661278c565b61359d6040830185612865565b81810360608301526135af8184613538565b905095945050505050565b5f815190506135c8816125e6565b92915050565b5f602082840312156135e3576135e26125b3565b5b5f6135f0848285016135ba565b91505092915050565b7f4e487b71000000000000000000000000000000000000000000000000000000005f52601260045260245ffdfea264697066735822122049ae425be1420e26f9265534da44bbb0fc3152f7e3cdec47227a6062d504a31c64736f6c634300081c0033","linkReferences":{}},"methodIdentifiers":{"_isOwnerOrCollaborator(uint256,address)":"c57d3087","approve(address,uint256)":"095ea7b3","assignCollaborator(uint256,address,uint64)":"977905c0","balanceOf(address)":"70a08231","collaborators(uint256)":"1dc3a36d","createResearch(string,string)":"c045863f","desciToken()":"6002b50b","getApproved(uint256)":"081812fc","getCollaborations(address)":"c1c62ad6","getLatestResearch(uint256)":"1f4eb883","getResearchVersion(uint256,uint256)":"65fe3b1d","isApprovedForAll(address,address)":"e985e9c5","name()":"06fdde03","owner()":"8da5cb5b","ownerOf(uint256)":"6352211e","renounceOwnership()":"715018a6","researchData(uint256)":"9490a82e","safeTransferFrom(address,address,uint256)":"42842e0e","safeTransferFrom(address,address,uint256,bytes)":"b88d4fde","setApprovalForAll(address,bool)":"a22cb465","setUpdateReward(uint256)":"20c21517","supportsInterface(bytes4)":"01ffc9a7","symbol()":"95d89b41","tokenURI(uint256)":"c87b56dd","transferFrom(address,address,uint256)":"23b872dd","transferOwnership(address)":"f2fde38b","updateResearch(uint256,string)":"3849af2e","updateReward()":"f36c0a72","userCollaborations(address,uint256)":"20a23863"},"id":39}