{
  "abi": [
    {
      "type": "constructor",
      "inputs": [
        {
          "name": "_desciTokenAddress",
          "type": "address",
          "internalType": "address"
        },
        {
          "name": "_researchCollabAddress",
          "type": "address",
          "internalType": "address"
        }
      ],
      "stateMutability": "nonpayable"
    },
    {
      "type": "function",
      "name": "companies",
      "inputs": [
        {
          "name": "",
          "type": "uint256",
          "internalType": "uint256"
        }
      ],
      "outputs": [
        {
          "name": "id",
          "type": "uint256",
          "internalType": "uint256"
        },
        {
          "name": "name",
          "type": "string",
          "internalType": "string"
        },
        {
          "name": "owner",
          "type": "address",
          "internalType": "address"
        }
      ],
      "stateMutability": "view"
    },
    {
      "type": "function",
      "name": "companyMembers",
      "inputs": [
        {
          "name": "",
          "type": "uint256",
          "internalType": "uint256"
        },
        {
          "name": "",
          "type": "uint256",
          "internalType": "uint256"
        }
      ],
      "outputs": [
        {
          "name": "",
          "type": "bool",
          "internalType": "bool"
        }
      ],
      "stateMutability": "view"
    },
    {
      "type": "function",
      "name": "createCompany",
      "inputs": [
        {
          "name": "_name",
          "type": "string",
          "internalType": "string"
        }
      ],
      "outputs": [],
      "stateMutability": "nonpayable"
    },
    {
      "type": "function",
      "name": "createProfile",
      "inputs": [
        {
          "name": "_profileURI",
          "type": "string",
          "internalType": "string"
        }
      ],
      "outputs": [],
      "stateMutability": "nonpayable"
    },
    {
      "type": "function",
      "name": "desciToken",
      "inputs": [],
      "outputs": [
        {
          "name": "",
          "type": "address",
          "internalType": "contract DeSciToken"
        }
      ],
      "stateMutability": "view"
    },
    {
      "type": "function",
      "name": "getCompany",
      "inputs": [
        {
          "name": "_companyId",
          "type": "uint256",
          "internalType": "uint256"
        }
      ],
      "outputs": [
        {
          "name": "",
          "type": "uint256",
          "internalType": "uint256"
        },
        {
          "name": "",
          "type": "string",
          "internalType": "string"
        },
        {
          "name": "",
          "type": "address",
          "internalType": "address"
        },
        {
          "name": "",
          "type": "uint256[]",
          "internalType": "uint256[]"
        },
        {
          "name": "",
          "type": "uint256[]",
          "internalType": "uint256[]"
        }
      ],
      "stateMutability": "view"
    },
    {
      "type": "function",
      "name": "getCompanyOfProposal",
      "inputs": [
        {
          "name": "_proposalId",
          "type": "uint256",
          "internalType": "uint256"
        }
      ],
      "outputs": [
        {
          "name": "",
          "type": "uint256",
          "internalType": "uint256"
        }
      ],
      "stateMutability": "view"
    },
    {
      "type": "function",
      "name": "getProfile",
      "inputs": [
        {
          "name": "_user",
          "type": "address",
          "internalType": "address"
        }
      ],
      "outputs": [
        {
          "name": "",
          "type": "uint256",
          "internalType": "uint256"
        },
        {
          "name": "",
          "type": "string",
          "internalType": "string"
        }
      ],
      "stateMutability": "view"
    },
    {
      "type": "function",
      "name": "getProposal",
      "inputs": [
        {
          "name": "_proposalId",
          "type": "uint256",
          "internalType": "uint256"
        }
      ],
      "outputs": [
        {
          "name": "",
          "type": "string",
          "internalType": "string"
        },
        {
          "name": "",
          "type": "address",
          "internalType": "address"
        },
        {
          "name": "",
          "type": "uint256",
          "internalType": "uint256"
        },
        {
          "name": "",
          "type": "uint256",
          "internalType": "uint256"
        },
        {
          "name": "",
          "type": "bool",
          "internalType": "bool"
        },
        {
          "name": "",
          "type": "string",
          "internalType": "string"
        }
      ],
      "stateMutability": "view"
    },
    {
      "type": "function",
      "name": "getUserId",
      "inputs": [
        {
          "name": "_user",
          "type": "address",
          "internalType": "address"
        }
      ],
      "outputs": [
        {
          "name": "",
          "type": "uint256",
          "internalType": "uint256"
        }
      ],
      "stateMutability": "view"
    },
    {
      "type": "function",
      "name": "hasUserVoted",
      "inputs": [
        {
          "name": "",
          "type": "uint256",
          "internalType": "uint256"
        },
        {
          "name": "",
          "type": "uint256",
          "internalType": "uint256"
        }
      ],
      "outputs": [
        {
          "name": "",
          "type": "bool",
          "internalType": "bool"
        }
      ],
      "stateMutability": "view"
    },
    {
      "type": "function",
      "name": "isMemberOfCompany",
      "inputs": [
        {
          "name": "_companyId",
          "type": "uint256",
          "internalType": "uint256"
        },
        {
          "name": "_userId",
          "type": "uint256",
          "internalType": "uint256"
        }
      ],
      "outputs": [
        {
          "name": "",
          "type": "bool",
          "internalType": "bool"
        }
      ],
      "stateMutability": "view"
    },
    {
      "type": "function",
      "name": "joinCompany",
      "inputs": [
        {
          "name": "_companyId",
          "type": "uint256",
          "internalType": "uint256"
        }
      ],
      "outputs": [],
      "stateMutability": "nonpayable"
    },
    {
      "type": "function",
      "name": "owner",
      "inputs": [],
      "outputs": [
        {
          "name": "",
          "type": "address",
          "internalType": "address"
        }
      ],
      "stateMutability": "view"
    },
    {
      "type": "function",
      "name": "profiles",
      "inputs": [
        {
          "name": "",
          "type": "uint256",
          "internalType": "uint256"
        }
      ],
      "outputs": [
        {
          "name": "profileURI",
          "type": "string",
          "internalType": "string"
        }
      ],
      "stateMutability": "view"
    },
    {
      "type": "function",
      "name": "proposalCreationReward",
      "inputs": [],
      "outputs": [
        {
          "name": "",
          "type": "uint256",
          "internalType": "uint256"
        }
      ],
      "stateMutability": "view"
    },
    {
      "type": "function",
      "name": "proposalResearchURI",
      "inputs": [
        {
          "name": "",
          "type": "uint256",
          "internalType": "uint256"
        }
      ],
      "outputs": [
        {
          "name": "",
          "type": "string",
          "internalType": "string"
        }
      ],
      "stateMutability": "view"
    },
    {
      "type": "function",
      "name": "proposals",
      "inputs": [
        {
          "name": "",
          "type": "uint256",
          "internalType": "uint256"
        }
      ],
      "outputs": [
        {
          "name": "description",
          "type": "string",
          "internalType": "string"
        },
        {
          "name": "proposer",
          "type": "address",
          "internalType": "address"
        },
        {
          "name": "votesFor",
          "type": "uint256",
          "internalType": "uint256"
        },
        {
          "name": "votesAgainst",
          "type": "uint256",
          "internalType": "uint256"
        },
        {
          "name": "approved",
          "type": "bool",
          "internalType": "bool"
        }
      ],
      "stateMutability": "view"
    },
    {
      "type": "function",
      "name": "raiseProposal",
      "inputs": [
        {
          "name": "_companyId",
          "type": "uint256",
          "internalType": "uint256"
        },
        {
          "name": "_description",
          "type": "string",
          "internalType": "string"
        },
        {
          "name": "_researchURI",
          "type": "string",
          "internalType": "string"
        }
      ],
      "outputs": [],
      "stateMutability": "nonpayable"
    },
    {
      "type": "function",
      "name": "renounceOwnership",
      "inputs": [],
      "outputs": [],
      "stateMutability": "nonpayable"
    },
    {
      "type": "function",
      "name": "researchCollab",
      "inputs": [],
      "outputs": [
        {
          "name": "",
          "type": "address",
          "internalType": "contract ResearchCollab"
        }
      ],
      "stateMutability": "view"
    },
    {
      "type": "function",
      "name": "setRewardAmounts",
      "inputs": [
        {
          "name": "_proposalReward",
          "type": "uint256",
          "internalType": "uint256"
        },
        {
          "name": "_voteReward",
          "type": "uint256",
          "internalType": "uint256"
        }
      ],
      "outputs": [],
      "stateMutability": "nonpayable"
    },
    {
      "type": "function",
      "name": "transferOwnership",
      "inputs": [
        {
          "name": "newOwner",
          "type": "address",
          "internalType": "address"
        }
      ],
      "outputs": [],
      "stateMutability": "nonpayable"
    },
    {
      "type": "function",
      "name": "userAddressToId",
      "inputs": [
        {
          "name": "",
          "type": "address",
          "internalType": "address"
        }
      ],
      "outputs": [
        {
          "name": "",
          "type": "uint256",
          "internalType": "uint256"
        }
      ],
      "stateMutability": "view"
    },
    {
      "type": "function",
      "name": "voteOnProposal",
      "inputs": [
        {
          "name": "_proposalId",
          "type": "uint256",
          "internalType": "uint256"
        },
        {
          "name": "_inFavor",
          "type": "bool",
          "internalType": "bool"
        }
      ],
      "outputs": [],
      "stateMutability": "nonpayable"
    },
    {
      "type": "function",
      "name": "votingReward",
      "inputs": [],
      "outputs": [
        {
          "name": "",
          "type": "uint256",
          "internalType": "uint256"
        }
      ],
      "stateMutability": "view"
    },
    {
      "type": "event",
      "name": "CompanyCreated",
      "inputs": [
        {
          "name": "companyId",
          "type": "uint256",
          "indexed": true,
          "internalType": "uint256"
        },
        {
          "name": "name",
          "type": "string",
          "indexed": false,
          "internalType": "string"
        },
        {
          "name": "owner",
          "type": "address",
          "indexed": false,
          "internalType": "address"
        }
      ],
      "anonymous": false
    },
    {
      "type": "event",
      "name": "JoinedCompany",
      "inputs": [
        {
          "name": "userId",
          "type": "uint256",
          "indexed": true,
          "internalType": "uint256"
        },
        {
          "name": "companyId",
          "type": "uint256",
          "indexed": true,
          "internalType": "uint256"
        }
      ],
      "anonymous": false
    },
    {
      "type": "event",
      "name": "OwnershipTransferred",
      "inputs": [
        {
          "name": "previousOwner",
          "type": "address",
          "indexed": true,
          "internalType": "address"
        },
        {
          "name": "newOwner",
          "type": "address",
          "indexed": true,
          "internalType": "address"
        }
      ],
      "anonymous": false
    },
    {
      "type": "event",
      "name": "ProposalApproved",
      "inputs": [
        {
          "name": "proposalId",
          "type": "uint256",
          "indexed": true,
          "internalType": "uint256"
        },
        {
          "name": "companyId",
          "type": "uint256",
          "indexed": true,
          "internalType": "uint256"
        }
      ],
      "anonymous": false
    },
    {
      "type": "event",
      "name": "ProposalCreated",
      "inputs": [
        {
          "name": "proposalId",
          "type": "uint256",
          "indexed": true,
          "internalType": "uint256"
        },
        {
          "name": "companyId",
          "type": "uint256",
          "indexed": true,
          "internalType": "uint256"
        },
        {
          "name": "description",
          "type": "string",
          "indexed": false,
          "internalType": "string"
        },
        {
          "name": "proposer",
          "type": "address",
          "indexed": false,
          "internalType": "address"
        }
      ],
      "anonymous": false
    },
    {
      "type": "event",
      "name": "Voted",
      "inputs": [
        {
          "name": "proposalId",
          "type": "uint256",
          "indexed": true,
          "internalType": "uint256"
        },
        {
          "name": "userId",
          "type": "uint256",
          "indexed": true,
          "internalType": "uint256"
        },
        {
          "name": "inFavor",
          "type": "bool",
          "indexed": false,
          "internalType": "bool"
        }
      ],
      "anonymous": false
    },
    {
      "type": "error",
      "name": "OwnableInvalidOwner",
      "inputs": [
        {
          "name": "owner",
          "type": "address",
          "internalType": "address"
        }
      ]
    },
    {
      "type": "error",
      "name": "OwnableUnauthorizedAccount",
      "inputs": [
        {
          "name": "account",
          "type": "address",
          "internalType": "address"
        }
      ]
    }
  ],
  "bytecode": {
    "object": "0x60806040526801a055690d9db80000600d55678ac7230489e80000600e55348015610028575f5ffd5b50604051612fc0380380612fc0833981810160405281019061004a9190610271565b335f73ffffffffffffffffffffffffffffffffffffffff168173ffffffffffffffffffffffffffffffffffffffff16036100bb575f6040517f1e4fbdf70000000000000000000000000000000000000000000000000000000081526004016100b291906102be565b60405180910390fd5b6100ca8161015260201b60201c565b5081600b5f6101000a81548173ffffffffffffffffffffffffffffffffffffffff021916908373ffffffffffffffffffffffffffffffffffffffff16021790555080600c5f6101000a81548173ffffffffffffffffffffffffffffffffffffffff021916908373ffffffffffffffffffffffffffffffffffffffff16021790555050506102d7565b5f5f5f9054906101000a900473ffffffffffffffffffffffffffffffffffffffff169050815f5f6101000a81548173ffffffffffffffffffffffffffffffffffffffff021916908373ffffffffffffffffffffffffffffffffffffffff1602179055508173ffffffffffffffffffffffffffffffffffffffff168173ffffffffffffffffffffffffffffffffffffffff167f8be0079c531659141344cd1fd0a4f28419497f9722a3daafe3b4186f6b6457e060405160405180910390a35050565b5f5ffd5b5f73ffffffffffffffffffffffffffffffffffffffff82169050919050565b5f61024082610217565b9050919050565b61025081610236565b811461025a575f5ffd5b50565b5f8151905061026b81610247565b92915050565b5f5f6040838503121561028757610286610213565b5b5f6102948582860161025d565b92505060206102a58582860161025d565b9150509250929050565b6102b881610236565b82525050565b5f6020820190506102d15f8301846102af565b92915050565b612cdc806102e45f395ff3fe608060405234801561000f575f5ffd5b506004361061018c575f3560e01c8063715018a6116100dc578063a426020211610095578063c7f758a81161006f578063c7f758a8146104eb578063d113ef7c14610520578063f2fde38b1461053c578063fd7f611e146105585761018c565b8063a426020214610481578063c06048061461049d578063c36fe3d6146104bb5761018c565b8063715018a6146103ab5780637ddb5e65146103b55780638da5cb5b146103d357806393103e44146103f157806396854134146104215780639f78a946146104515761018c565b80632813d19d1161014957806346e5b6471161012357806346e5b6471461030d5780634866d53b1461033d57806357d13917146103595780636002b50b1461038d5761018c565b80632813d19d1461028f5780632b956ff7146102c1578063334c3f0e146102f15761018c565b8063013cf08b146101905780630f53a470146101c4578063124534d8146101f55780631614665c146102255780631693d51f1461024157806319ecaea71461025f575b5f5ffd5b6101aa60048036038101906101a59190611dc2565b610574565b6040516101bb959493929190611ec5565b60405180910390f35b6101de60048036038101906101d99190611f47565b610657565b6040516101ec929190611f72565b60405180910390f35b61020f600480360381019061020a9190611fa0565b610785565b60405161021c9190611fde565b60405180910390f35b61023f600480360381019061023a9190612021565b6107af565b005b610249610b3e565b60405161025691906120ba565b60405180910390f35b61027960048036038101906102749190611dc2565b610b63565b60405161028691906120d3565b60405180910390f35b6102a960048036038101906102a49190611dc2565b610c74565b6040516102b8939291906120ec565b60405180910390f35b6102db60048036038101906102d69190611f47565b610d3f565b6040516102e891906120d3565b60405180910390f35b61030b60048036038101906103069190612254565b610d85565b005b61032760048036038101906103229190611dc2565b610e98565b604051610334919061229b565b60405180910390f35b61035760048036038101906103529190611dc2565b610f33565b005b610373600480360381019061036e9190611dc2565b61112e565b604051610384959493929190612372565b60405180910390f35b6103956112bb565b6040516103a291906123f8565b60405180910390f35b6103b36112e0565b005b6103bd6112f3565b6040516103ca91906120d3565b60405180910390f35b6103db6112f9565b6040516103e89190612411565b60405180910390f35b61040b60048036038101906104069190611fa0565b611320565b6040516104189190611fde565b60405180910390f35b61043b60048036038101906104369190611fa0565b611356565b6040516104489190611fde565b60405180910390f35b61046b60048036038101906104669190611f47565b611380565b60405161047891906120d3565b60405180910390f35b61049b6004803603810190610496919061242a565b611395565b005b6104a561169f565b6040516104b291906120d3565b60405180910390f35b6104d560048036038101906104d09190611dc2565b6116a5565b6040516104e2919061229b565b60405180910390f35b61050560048036038101906105009190611dc2565b611745565b604051610517969594939291906124b2565b60405180910390f35b61053a60048036038101906105359190611fa0565b6118de565b005b61055660048036038101906105519190611f47565b6118f8565b005b610572600480360381019061056d9190612254565b61197c565b005b6007602052805f5260405f205f91509050805f0180546105939061254c565b80601f01602080910402602001604051908101604052809291908181526020018280546105bf9061254c565b801561060a5780601f106105e15761010080835404028352916020019161060a565b820191905f5260205f20905b8154815290600101906020018083116105ed57829003601f168201915b505050505090806001015f9054906101000a900473ffffffffffffffffffffffffffffffffffffffff1690806002015490806003015490806004015f9054906101000a900460ff16905085565b5f60605f60095f8573ffffffffffffffffffffffffffffffffffffffff1673ffffffffffffffffffffffffffffffffffffffff1681526020019081526020015f205490505f81036106dd576040517f08c379a00000000000000000000000000000000000000000000000000000000081526004016106d4906125c6565b60405180910390fd5b8060045f8381526020019081526020015f205f018080546106fd9061254c565b80601f01602080910402602001604051908101604052809291908181526020018280546107299061254c565b80156107745780601f1061074b57610100808354040283529160200191610774565b820191905f5260205f20905b81548152906001019060200180831161075757829003601f168201915b505050505090509250925050915091565b6006602052815f5260405f20602052805f5260405f205f915091509054906101000a900460ff1681565b5f60095f3373ffffffffffffffffffffffffffffffffffffffff1673ffffffffffffffffffffffffffffffffffffffff1681526020019081526020015f205490505f8103610832576040517f08c379a00000000000000000000000000000000000000000000000000000000081526004016108299061262e565b60405180910390fd5b5f60075f8581526020019081526020015f2090505f73ffffffffffffffffffffffffffffffffffffffff16816001015f9054906101000a900473ffffffffffffffffffffffffffffffffffffffff1673ffffffffffffffffffffffffffffffffffffffff16036108d7576040517f08c379a00000000000000000000000000000000000000000000000000000000081526004016108ce90612696565b60405180910390fd5b600a5f8581526020019081526020015f205f8381526020019081526020015f205f9054906101000a900460ff1615610944576040517f08c379a000000000000000000000000000000000000000000000000000000000815260040161093b906126fe565b60405180910390fd5b6001600a5f8681526020019081526020015f205f8481526020019081526020015f205f6101000a81548160ff02191690831515021790555082156109a057806002015f81548092919061099690612749565b91905055506109ba565b806003015f8154809291906109b490612749565b91905055505b600b5f9054906101000a900473ffffffffffffffffffffffffffffffffffffffff1673ffffffffffffffffffffffffffffffffffffffff1663a8031a1d33600e546040518363ffffffff1660e01b8152600401610a18929190612790565b5f604051808303815f87803b158015610a2f575f5ffd5b505af1158015610a41573d5f5f3e3d5ffd5b5050505080600301548160020154118015610a6a5750806004015f9054906101000a900460ff16155b15610aff576001816004015f6101000a81548160ff0219169083151502179055505f610a9585610b63565b905060055f8281526020019081526020015f2060040185908060018154018082558091505060019003905f5260205f20015f909190919091505580857fc6a4fd4a703d2a2fe3167ce7f6d62bf96458b7e55042cfaa85d5c7ef3ac56eea60405160405180910390a3505b81847f67b60bc862e9c013a238015361df4bb95a4abfe78309ba4a4d7a04d2fe29e43285604051610b309190611fde565b60405180910390a350505050565b600c5f9054906101000a900473ffffffffffffffffffffffffffffffffffffffff1681565b5f5f600190505b6001548111610c33575f60055f8381526020019081526020015f20600301805480602002602001604051908101604052809291908181526020018280548015610bd057602002820191905f5260205f20905b815481526020019060010190808311610bbc575b505050505090505f5f90505b8151811015610c1e5784828281518110610bf957610bf86127b7565b5b602002602001015103610c1157829350505050610c6f565b8080600101915050610bdc565b50508080610c2b90612749565b915050610b6a565b506040517f08c379a0000000000000000000000000000000000000000000000000000000008152600401610c6690612854565b60405180910390fd5b919050565b6005602052805f5260405f205f91509050805f015490806001018054610c999061254c565b80601f0160208091040260200160405190810160405280929190818152602001828054610cc59061254c565b8015610d105780601f10610ce757610100808354040283529160200191610d10565b820191905f5260205f20905b815481529060010190602001808311610cf357829003601f168201915b505050505090806002015f9054906101000a900473ffffffffffffffffffffffffffffffffffffffff16905083565b5f60095f8373ffffffffffffffffffffffffffffffffffffffff1673ffffffffffffffffffffffffffffffffffffffff1681526020019081526020015f20549050919050565b5f60095f3373ffffffffffffffffffffffffffffffffffffffff1673ffffffffffffffffffffffffffffffffffffffff1681526020019081526020015f205414610e04576040517f08c379a0000000000000000000000000000000000000000000000000000000008152600401610dfb906128bc565b60405180910390fd5b5f60035f8154610e1390612749565b919050819055905060405180602001604052808381525060045f8381526020019081526020015f205f820151815f019081610e4e9190612a71565b509050508060095f3373ffffffffffffffffffffffffffffffffffffffff1673ffffffffffffffffffffffffffffffffffffffff1681526020019081526020015f20819055505050565b6008602052805f5260405f205f915090508054610eb49061254c565b80601f0160208091040260200160405190810160405280929190818152602001828054610ee09061254c565b8015610f2b5780601f10610f0257610100808354040283529160200191610f2b565b820191905f5260205f20905b815481529060010190602001808311610f0e57829003601f168201915b505050505081565b5f73ffffffffffffffffffffffffffffffffffffffff1660055f8381526020019081526020015f206002015f9054906101000a900473ffffffffffffffffffffffffffffffffffffffff1673ffffffffffffffffffffffffffffffffffffffff1603610fd4576040517f08c379a0000000000000000000000000000000000000000000000000000000008152600401610fcb90612b8a565b60405180910390fd5b5f60095f3373ffffffffffffffffffffffffffffffffffffffff1673ffffffffffffffffffffffffffffffffffffffff1681526020019081526020015f205490505f8103611057576040517f08c379a000000000000000000000000000000000000000000000000000000000815260040161104e9061262e565b60405180910390fd5b60065f8381526020019081526020015f205f8281526020019081526020015f205f9054906101000a900460ff16156110c4576040517f08c379a00000000000000000000000000000000000000000000000000000000081526004016110bb90612bf2565b60405180910390fd5b600160065f8481526020019081526020015f205f8381526020019081526020015f205f6101000a81548160ff02191690831515021790555081817f330ca40127ce602c31970400db7740a2ba8185951ecbb58d7189045b91f1b27460405160405180910390a35050565b5f60605f6060805f60055f8881526020019081526020015f209050805f015481600101826002015f9054906101000a900473ffffffffffffffffffffffffffffffffffffffff1683600301846004018380546111899061254c565b80601f01602080910402602001604051908101604052809291908181526020018280546111b59061254c565b80156112005780601f106111d757610100808354040283529160200191611200565b820191905f5260205f20905b8154815290600101906020018083116111e357829003601f168201915b505050505093508180548060200260200160405190810160405280929190818152602001828054801561125057602002820191905f5260205f20905b81548152602001906001019080831161123c575b50505050509150808054806020026020016040519081016040528092919081815260200182805480156112a057602002820191905f5260205f20905b81548152602001906001019080831161128c575b50505050509050955095509550955095505091939590929450565b600b5f9054906101000a900473ffffffffffffffffffffffffffffffffffffffff1681565b6112e8611bc9565b6112f15f611c50565b565b600e5481565b5f5f5f9054906101000a900473ffffffffffffffffffffffffffffffffffffffff16905090565b5f60065f8481526020019081526020015f205f8381526020019081526020015f205f9054906101000a900460ff16905092915050565b600a602052815f5260405f20602052805f5260405f205f915091509054906101000a900460ff1681565b6009602052805f5260405f205f915090505481565b5f60095f3373ffffffffffffffffffffffffffffffffffffffff1673ffffffffffffffffffffffffffffffffffffffff1681526020019081526020015f205490505f8103611418576040517f08c379a000000000000000000000000000000000000000000000000000000000815260040161140f9061262e565b60405180910390fd5b60065f8581526020019081526020015f205f8281526020019081526020015f205f9054906101000a900460ff16611484576040517f08c379a000000000000000000000000000000000000000000000000000000000815260040161147b90612c5a565b60405180910390fd5b5f60025f815461149390612749565b91905081905590506040518060a001604052808581526020013373ffffffffffffffffffffffffffffffffffffffff1681526020015f81526020015f81526020015f151581525060075f8381526020019081526020015f205f820151815f0190816114fe9190612a71565b506020820151816001015f6101000a81548173ffffffffffffffffffffffffffffffffffffffff021916908373ffffffffffffffffffffffffffffffffffffffff16021790555060408201518160020155606082015181600301556080820151816004015f6101000a81548160ff0219169083151502179055509050508260085f8381526020019081526020015f2090816115999190612a71565b5060055f8681526020019081526020015f2060030181908060018154018082558091505060019003905f5260205f20015f9091909190915055600b5f9054906101000a900473ffffffffffffffffffffffffffffffffffffffff1673ffffffffffffffffffffffffffffffffffffffff1663a8031a1d33600d546040518363ffffffff1660e01b8152600401611630929190612790565b5f604051808303815f87803b158015611647575f5ffd5b505af1158015611659573d5f5f3e3d5ffd5b5050505084817fdbe2979c42a8aeb55be9420e680648e5775a48bac33be1873bdcb61d8b4952668633604051611690929190612c78565b60405180910390a35050505050565b600d5481565b6004602052805f5260405f205f91509050805f0180546116c49061254c565b80601f01602080910402602001604051908101604052809291908181526020018280546116f09061254c565b801561173b5780601f106117125761010080835404028352916020019161173b565b820191905f5260205f20905b81548152906001019060200180831161171e57829003601f168201915b5050505050905081565b60605f5f5f5f60605f60075f8981526020019081526020015f209050805f01816001015f9054906101000a900473ffffffffffffffffffffffffffffffffffffffff1682600201548360030154846004015f9054906101000a900460ff1660085f8e81526020019081526020015f208580546117c09061254c565b80601f01602080910402602001604051908101604052809291908181526020018280546117ec9061254c565b80156118375780601f1061180e57610100808354040283529160200191611837565b820191905f5260205f20905b81548152906001019060200180831161181a57829003601f168201915b5050505050955080805461184a9061254c565b80601f01602080910402602001604051908101604052809291908181526020018280546118769061254c565b80156118c15780601f10611898576101008083540402835291602001916118c1565b820191905f5260205f20905b8154815290600101906020018083116118a457829003601f168201915b505050505090509650965096509650965096505091939550919395565b6118e6611bc9565b81600d8190555080600e819055505050565b611900611bc9565b5f73ffffffffffffffffffffffffffffffffffffffff168173ffffffffffffffffffffffffffffffffffffffff1603611970575f6040517f1e4fbdf70000000000000000000000000000000000000000000000000000000081526004016119679190612411565b60405180910390fd5b61197981611c50565b50565b5f60095f3373ffffffffffffffffffffffffffffffffffffffff1673ffffffffffffffffffffffffffffffffffffffff1681526020019081526020015f205490505f81036119ff576040517f08c379a00000000000000000000000000000000000000000000000000000000081526004016119f69061262e565b60405180910390fd5b5f60015f8154611a0e90612749565b91905081905590505f5f67ffffffffffffffff811115611a3157611a30612130565b5b604051908082528060200260200182016040528015611a5f5781602001602082028036833780820191505090505b5090506040518060a001604052808381526020018581526020013373ffffffffffffffffffffffffffffffffffffffff1681526020018281526020018281525060055f8481526020019081526020015f205f820151815f01556020820151816001019081611acd9190612a71565b506040820151816002015f6101000a81548173ffffffffffffffffffffffffffffffffffffffff021916908373ffffffffffffffffffffffffffffffffffffffff1602179055506060820151816003019080519060200190611b30929190611d18565b506080820151816004019080519060200190611b4d929190611d18565b50905050600160065f8481526020019081526020015f205f8581526020019081526020015f205f6101000a81548160ff021916908315150217905550817ff6a220697408fddd552172c86396a753921513c9ca6a4e1a7c1a7d8e61b814948533604051611bbb929190612c78565b60405180910390a250505050565b611bd1611d11565b73ffffffffffffffffffffffffffffffffffffffff16611bef6112f9565b73ffffffffffffffffffffffffffffffffffffffff1614611c4e57611c12611d11565b6040517f118cdaa7000000000000000000000000000000000000000000000000000000008152600401611c459190612411565b60405180910390fd5b565b5f5f5f9054906101000a900473ffffffffffffffffffffffffffffffffffffffff169050815f5f6101000a81548173ffffffffffffffffffffffffffffffffffffffff021916908373ffffffffffffffffffffffffffffffffffffffff1602179055508173ffffffffffffffffffffffffffffffffffffffff168173ffffffffffffffffffffffffffffffffffffffff167f8be0079c531659141344cd1fd0a4f28419497f9722a3daafe3b4186f6b6457e060405160405180910390a35050565b5f33905090565b828054828255905f5260205f20908101928215611d52579160200282015b82811115611d51578251825591602001919060010190611d36565b5b509050611d5f9190611d63565b5090565b5b80821115611d7a575f815f905550600101611d64565b5090565b5f604051905090565b5f5ffd5b5f5ffd5b5f819050919050565b611da181611d8f565b8114611dab575f5ffd5b50565b5f81359050611dbc81611d98565b92915050565b5f60208284031215611dd757611dd6611d87565b5b5f611de484828501611dae565b91505092915050565b5f81519050919050565b5f82825260208201905092915050565b8281835e5f83830152505050565b5f601f19601f8301169050919050565b5f611e2f82611ded565b611e398185611df7565b9350611e49818560208601611e07565b611e5281611e15565b840191505092915050565b5f73ffffffffffffffffffffffffffffffffffffffff82169050919050565b5f611e8682611e5d565b9050919050565b611e9681611e7c565b82525050565b611ea581611d8f565b82525050565b5f8115159050919050565b611ebf81611eab565b82525050565b5f60a0820190508181035f830152611edd8188611e25565b9050611eec6020830187611e8d565b611ef96040830186611e9c565b611f066060830185611e9c565b611f136080830184611eb6565b9695505050505050565b611f2681611e7c565b8114611f30575f5ffd5b50565b5f81359050611f4181611f1d565b92915050565b5f60208284031215611f5c57611f5b611d87565b5b5f611f6984828501611f33565b91505092915050565b5f604082019050611f855f830185611e9c565b8181036020830152611f978184611e25565b90509392505050565b5f5f60408385031215611fb657611fb5611d87565b5b5f611fc385828601611dae565b9250506020611fd485828601611dae565b9150509250929050565b5f602082019050611ff15f830184611eb6565b92915050565b61200081611eab565b811461200a575f5ffd5b50565b5f8135905061201b81611ff7565b92915050565b5f5f6040838503121561203757612036611d87565b5b5f61204485828601611dae565b92505060206120558582860161200d565b9150509250929050565b5f819050919050565b5f61208261207d61207884611e5d565b61205f565b611e5d565b9050919050565b5f61209382612068565b9050919050565b5f6120a482612089565b9050919050565b6120b48161209a565b82525050565b5f6020820190506120cd5f8301846120ab565b92915050565b5f6020820190506120e65f830184611e9c565b92915050565b5f6060820190506120ff5f830186611e9c565b81810360208301526121118185611e25565b90506121206040830184611e8d565b949350505050565b5f5ffd5b5f5ffd5b7f4e487b71000000000000000000000000000000000000000000000000000000005f52604160045260245ffd5b61216682611e15565b810181811067ffffffffffffffff8211171561218557612184612130565b5b80604052505050565b5f612197611d7e565b90506121a3828261215d565b919050565b5f67ffffffffffffffff8211156121c2576121c1612130565b5b6121cb82611e15565b9050602081019050919050565b828183375f83830152505050565b5f6121f86121f3846121a8565b61218e565b9050828152602081018484840111156122145761221361212c565b5b61221f8482856121d8565b509392505050565b5f82601f83011261223b5761223a612128565b5b813561224b8482602086016121e6565b91505092915050565b5f6020828403121561226957612268611d87565b5b5f82013567ffffffffffffffff81111561228657612285611d8b565b5b61229284828501612227565b91505092915050565b5f6020820190508181035f8301526122b38184611e25565b905092915050565b5f81519050919050565b5f82825260208201905092915050565b5f819050602082019050919050565b6122ed81611d8f565b82525050565b5f6122fe83836122e4565b60208301905092915050565b5f602082019050919050565b5f612320826122bb565b61232a81856122c5565b9350612335836122d5565b805f5b8381101561236557815161234c88826122f3565b97506123578361230a565b925050600181019050612338565b5085935050505092915050565b5f60a0820190506123855f830188611e9c565b81810360208301526123978187611e25565b90506123a66040830186611e8d565b81810360608301526123b88185612316565b905081810360808301526123cc8184612316565b90509695505050505050565b5f6123e282612089565b9050919050565b6123f2816123d8565b82525050565b5f60208201905061240b5f8301846123e9565b92915050565b5f6020820190506124245f830184611e8d565b92915050565b5f5f5f6060848603121561244157612440611d87565b5b5f61244e86828701611dae565b935050602084013567ffffffffffffffff81111561246f5761246e611d8b565b5b61247b86828701612227565b925050604084013567ffffffffffffffff81111561249c5761249b611d8b565b5b6124a886828701612227565b9150509250925092565b5f60c0820190508181035f8301526124ca8189611e25565b90506124d96020830188611e8d565b6124e66040830187611e9c565b6124f36060830186611e9c565b6125006080830185611eb6565b81810360a08301526125128184611e25565b9050979650505050505050565b7f4e487b71000000000000000000000000000000000000000000000000000000005f52602260045260245ffd5b5f600282049050600182168061256357607f821691505b6020821081036125765761257561251f565b5b50919050565b7f50726f66696c65206e6f7420666f756e640000000000000000000000000000005f82015250565b5f6125b0601183611df7565b91506125bb8261257c565b602082019050919050565b5f6020820190508181035f8301526125dd816125a4565b9050919050565b7f43726561746520612070726f66696c65206669727374000000000000000000005f82015250565b5f612618601683611df7565b9150612623826125e4565b602082019050919050565b5f6020820190508181035f8301526126458161260c565b9050919050565b7f50726f706f73616c20646f6573206e6f742065786973740000000000000000005f82015250565b5f612680601783611df7565b915061268b8261264c565b602082019050919050565b5f6020820190508181035f8301526126ad81612674565b9050919050565b7f416c726561647920766f746564000000000000000000000000000000000000005f82015250565b5f6126e8600d83611df7565b91506126f3826126b4565b602082019050919050565b5f6020820190508181035f830152612715816126dc565b9050919050565b7f4e487b71000000000000000000000000000000000000000000000000000000005f52601160045260245ffd5b5f61275382611d8f565b91507fffffffffffffffffffffffffffffffffffffffffffffffffffffffffffffffff82036127855761278461271c565b5b600182019050919050565b5f6040820190506127a35f830185611e8d565b6127b06020830184611e9c565b9392505050565b7f4e487b71000000000000000000000000000000000000000000000000000000005f52603260045260245ffd5b7f50726f706f73616c206e6f7420666f756e6420696e20616e7920636f6d70616e5f8201527f7900000000000000000000000000000000000000000000000000000000000000602082015250565b5f61283e602183611df7565b9150612849826127e4565b604082019050919050565b5f6020820190508181035f83015261286b81612832565b9050919050565b7f50726f66696c6520616c726561647920657869737473000000000000000000005f82015250565b5f6128a6601683611df7565b91506128b182612872565b602082019050919050565b5f6020820190508181035f8301526128d38161289a565b9050919050565b5f819050815f5260205f209050919050565b5f6020601f8301049050919050565b5f82821b905092915050565b5f600883026129367fffffffffffffffffffffffffffffffffffffffffffffffffffffffffffffffff826128fb565b61294086836128fb565b95508019841693508086168417925050509392505050565b5f61297261296d61296884611d8f565b61205f565b611d8f565b9050919050565b5f819050919050565b61298b83612958565b61299f61299782612979565b848454612907565b825550505050565b5f5f905090565b6129b66129a7565b6129c1818484612982565b505050565b5b818110156129e4576129d95f826129ae565b6001810190506129c7565b5050565b601f821115612a29576129fa816128da565b612a03846128ec565b81016020851015612a12578190505b612a26612a1e856128ec565b8301826129c6565b50505b505050565b5f82821c905092915050565b5f612a495f1984600802612a2e565b1980831691505092915050565b5f612a618383612a3a565b9150826002028217905092915050565b612a7a82611ded565b67ffffffffffffffff811115612a9357612a92612130565b5b612a9d825461254c565b612aa88282856129e8565b5f60209050601f831160018114612ad9575f8415612ac7578287015190505b612ad18582612a56565b865550612b38565b601f198416612ae7866128da565b5f5b82811015612b0e57848901518255600182019150602085019450602081019050612ae9565b86831015612b2b5784890151612b27601f891682612a3a565b8355505b6001600288020188555050505b505050505050565b7f436f6d70616e7920646f6573206e6f74206578697374000000000000000000005f82015250565b5f612b74601683611df7565b9150612b7f82612b40565b602082019050919050565b5f6020820190508181035f830152612ba181612b68565b9050919050565b7f416c72656164792061206d656d626572000000000000000000000000000000005f82015250565b5f612bdc601083611df7565b9150612be782612ba8565b602082019050919050565b5f6020820190508181035f830152612c0981612bd0565b9050919050565b7f4e6f742061206d656d626572206f66207468697320636f6d70616e79000000005f82015250565b5f612c44601c83611df7565b9150612c4f82612c10565b602082019050919050565b5f6020820190508181035f830152612c7181612c38565b9050919050565b5f6040820190508181035f830152612c908185611e25565b9050612c9f6020830184611e8d565b939250505056fea2646970667358221220e3468e415d065437015acc3abcedd0865c8d06d623fb4ba22ff19bdbf0970caa64736f6c634300081c0033",
    "linkReferences": {}
  },
  "methodIdentifiers": {
    "companies(uint256)": "2813d19d",
    "companyMembers(uint256,uint256)": "124534d8",
    "createCompany(string)": "fd7f611e",
    "createProfile(string)": "334c3f0e",
    "desciToken()": "6002b50b",
    "getCompany(uint256)": "57d13917",
    "getCompanyOfProposal(uint256)": "19ecaea7",
    "getProfile(address)": "0f53a470",
    "getProposal(uint256)": "c7f758a8",
    "getUserId(address)": "2b956ff7",
    "hasUserVoted(uint256,uint256)": "96854134",
    "isMemberOfCompany(uint256,uint256)": "93103e44",
    "joinCompany(uint256)": "4866d53b",
    "owner()": "8da5cb5b",
    "profiles(uint256)": "c36fe3d6",
    "proposalCreationReward()": "c0604806",
    "proposalResearchURI(uint256)": "46e5b647",
    "proposals(uint256)": "013cf08b",
    "raiseProposal(uint256,string,string)": "a4260202",
    "renounceOwnership()": "715018a6",
    "researchCollab()": "1693d51f",
    "setRewardAmounts(uint256,uint256)": "d113ef7c",
    "transferOwnership(address)": "f2fde38b",
    "userAddressToId(address)": "9f78a946",
    "voteOnProposal(uint256,bool)": "1614665c",
    "votingReward()": "7ddb5e65"
  },
  "id": 40
}