{"abi":[{"type":"constructor","inputs":[{"name":"_desciTokenAddress","type":"address","internalType":"address"}],"stateMutability":"nonpayable"},{"type":"function","name":"claimRefund","inputs":[{"name":"_projectId","type":"uint256","internalType":"uint256"}],"outputs":[],"stateMutability":"nonpayable"},{"type":"function","name":"contributeToResearch","inputs":[{"name":"_projectId","type":"uint256","internalType":"uint256"}],"outputs":[],"stateMutability":"payable"},{"type":"function","name":"contributions","inputs":[{"name":"","type":"uint256","internalType":"uint256"},{"name":"","type":"address","internalType":"address"}],"outputs":[{"name":"","type":"uint256","internalType":"uint256"}],"stateMutability":"view"},{"type":"function","name":"desciToken","inputs":[],"outputs":[{"name":"","type":"address","internalType":"contract DeSciToken"}],"stateMutability":"view"},{"type":"function","name":"fundingReward","inputs":[],"outputs":[{"name":"","type":"uint256","internalType":"uint256"}],"stateMutability":"view"},{"type":"function","name":"getResearchProject","inputs":[{"name":"_projectId","type":"uint256","internalType":"uint256"}],"outputs":[{"name":"","type":"string","internalType":"string"},{"name":"","type":"address","internalType":"address"},{"name":"","type":"uint256","internalType":"uint256"},{"name":"","type":"uint256","internalType":"uint256"},{"name":"","type":"uint256","internalType":"uint256"},{"name":"","type":"bool","internalType":"bool"},{"name":"","type":"bool","internalType":"bool"}],"stateMutability":"view"},{"type":"function","name":"getUserContribution","inputs":[{"name":"_projectId","type":"uint256","internalType":"uint256"},{"name":"_user","type":"address","internalType":"address"}],"outputs":[{"name":"","type":"uint256","internalType":"uint256"}],"stateMutability":"view"},{"type":"function","name":"owner","inputs":[],"outputs":[{"name":"","type":"address","internalType":"address"}],"stateMutability":"view"},{"type":"function","name":"projects","inputs":[{"name":"","type":"uint256","internalType":"uint256"}],"outputs":[{"name":"id","type":"uint256","internalType":"uint256"},{"name":"title","type":"string","internalType":"string"},{"name":"creator","type":"address","internalType":"address"},{"name":"targetAmount","type":"uint256","internalType":"uint256"},{"name":"currentAmount","type":"uint256","internalType":"uint256"},{"name":"deadline","type":"uint256","internalType":"uint256"},{"name":"funded","type":"bool","internalType":"bool"},{"name":"fundsReleased","type":"bool","internalType":"bool"}],"stateMutability":"view"},{"type":"function","name":"releaseFunds","inputs":[{"name":"_projectId","type":"uint256","internalType":"uint256"}],"outputs":[],"stateMutability":"nonpayable"},{"type":"function","name":"renounceOwnership","inputs":[],"outputs":[],"stateMutability":"nonpayable"},{"type":"function","name":"setFundingReward","inputs":[{"name":"_newReward","type":"uint256","internalType":"uint256"}],"outputs":[],"stateMutability":"nonpayable"},{"type":"function","name":"startResearchCrowdfunding","inputs":[{"name":"_title","type":"string","internalType":"string"},{"name":"_targetAmount","type":"uint256","internalType":"uint256"},{"name":"_duration","type":"uint256","internalType":"uint256"}],"outputs":[],"stateMutability":"nonpayable"},{"type":"function","name":"transferOwnership","inputs":[{"name":"newOwner","type":"address","internalType":"address"}],"outputs":[],"stateMutability":"nonpayable"},{"type":"event","name":"Funded","inputs":[{"name":"projectId","type":"uint256","indexed":true,"internalType":"uint256"},{"name":"backer","type":"address","indexed":true,"internalType":"address"},{"name":"amount","type":"uint256","indexed":false,"internalType":"uint256"}],"anonymous":false},{"type":"event","name":"FundsReleased","inputs":[{"name":"projectId","type":"uint256","indexed":true,"internalType":"uint256"},{"name":"amount","type":"uint256","indexed":false,"internalType":"uint256"}],"anonymous":false},{"type":"event","name":"OwnershipTransferred","inputs":[{"name":"previousOwner","type":"address","indexed":true,"internalType":"address"},{"name":"newOwner","type":"address","indexed":true,"internalType":"address"}],"anonymous":false},{"type":"event","name":"ProjectCreated","inputs":[{"name":"projectId","type":"uint256","indexed":true,"internalType":"uint256"},{"name":"title","type":"string","indexed":false,"internalType":"string"},{"name":"creator","type":"address","indexed":false,"internalType":"address"},{"name":"targetAmount","type":"uint256","indexed":false,"internalType":"uint256"},{"name":"deadline","type":"uint256","indexed":false,"internalType":"uint256"}],"anonymous":false},{"type":"event","name":"Refunded","inputs":[{"name":"projectId","type":"uint256","indexed":true,"internalType":"uint256"},{"name":"backer","type":"address","indexed":true,"internalType":"address"},{"name":"amount","type":"uint256","indexed":false,"internalType":"uint256"}],"anonymous":false},{"type":"error","name":"OwnableInvalidOwner","inputs":[{"name":"owner","type":"address","internalType":"address"}]},{"type":"error","name":"OwnableUnauthorizedAccount","inputs":[{"name":"account","type":"address","internalType":"address"}]},{"type":"error","name":"ReentrancyGuardReentrantCall","inputs":[]}],"bytecode":{"object":"0x60806040526802b5e3af16b188000060065534801561001c575f5ffd5b506040516122e63803806122e6833981810160405281019061003e919061022d565b3360015f819055505f73ffffffffffffffffffffffffffffffffffffffff168173ffffffffffffffffffffffffffffffffffffffff16036100b6575f6040517f1e4fbdf70000000000000000000000000000000000000000000000000000000081526004016100ad9190610267565b60405180910390fd5b6100c58161010c60201b60201c565b508060055f6101000a81548173ffffffffffffffffffffffffffffffffffffffff021916908373ffffffffffffffffffffffffffffffffffffffff16021790555050610280565b5f60015f9054906101000a900473ffffffffffffffffffffffffffffffffffffffff1690508160015f6101000a81548173ffffffffffffffffffffffffffffffffffffffff021916908373ffffffffffffffffffffffffffffffffffffffff1602179055508173ffffffffffffffffffffffffffffffffffffffff168173ffffffffffffffffffffffffffffffffffffffff167f8be0079c531659141344cd1fd0a4f28419497f9722a3daafe3b4186f6b6457e060405160405180910390a35050565b5f5ffd5b5f73ffffffffffffffffffffffffffffffffffffffff82169050919050565b5f6101fc826101d3565b9050919050565b61020c816101f2565b8114610216575f5ffd5b50565b5f8151905061022781610203565b92915050565b5f60208284031215610242576102416101cf565b5b5f61024f84828501610219565b91505092915050565b610261816101f2565b82525050565b5f60208201905061027a5f830184610258565b92915050565b6120598061028d5f395ff3fe6080604052600436106100dc575f3560e01c80635117e3381161007e578063715018a611610058578063715018a6146102c35780638da5cb5b146102d9578063a8ec559a14610303578063f2fde38b1461032d576100dc565b80635117e338146102355780635b7baf64146102715780636002b50b14610299576100dc565b806335aaf9f5116100ba57806335aaf9f5146101675780633d891f59146101a95780633df671a9146101e55780634d68282f1461020d576100dc565b8063107046bd146100e057806314780c40146101235780631d0866c01461014b575b5f5ffd5b3480156100eb575f5ffd5b5061010660048036038101906101019190611293565b610355565b60405161011a989796959493929190611396565b60405180910390f35b34801561012e575f5ffd5b5061014960048036038101906101449190611545565b610457565b005b61016560048036038101906101609190611293565b610675565b005b348015610172575f5ffd5b5061018d60048036038101906101889190611293565b610983565b6040516101a097969594939291906115b1565b60405180910390f35b3480156101b4575f5ffd5b506101cf60048036038101906101ca919061164f565b610a9d565b6040516101dc919061168d565b60405180910390f35b3480156101f0575f5ffd5b5061020b60048036038101906102069190611293565b610abd565b005b348015610218575f5ffd5b50610233600480360381019061022e9190611293565b610acf565b005b348015610240575f5ffd5b5061025b6004803603810190610256919061164f565b610cee565b604051610268919061168d565b60405180910390f35b34801561027c575f5ffd5b5061029760048036038101906102929190611293565b610d44565b005b3480156102a4575f5ffd5b506102ad610fc7565b6040516102ba9190611701565b60405180910390f35b3480156102ce575f5ffd5b506102d7610fec565b005b3480156102e4575f5ffd5b506102ed610fff565b6040516102fa919061171a565b60405180910390f35b34801561030e575f5ffd5b50610317611027565b604051610324919061168d565b60405180910390f35b348015610338575f5ffd5b50610353600480360381019061034e9190611733565b61102d565b005b6003602052805f5260405f205f91509050805f01549080600101805461037a9061178b565b80601f01602080910402602001604051908101604052809291908181526020018280546103a69061178b565b80156103f15780601f106103c8576101008083540402835291602001916103f1565b820191905f5260205f20905b8154815290600101906020018083116103d457829003601f168201915b505050505090806002015f9054906101000a900473ffffffffffffffffffffffffffffffffffffffff1690806003015490806004015490806005015490806006015f9054906101000a900460ff16908060060160019054906101000a900460ff16905088565b5f8211610499576040517f08c379a00000000000000000000000000000000000000000000000000000000081526004016104909061182b565b60405180910390fd5b5f81116104db576040517f08c379a00000000000000000000000000000000000000000000000000000000081526004016104d2906118b9565b60405180910390fd5b5f60025f81546104ea90611904565b91905081905590506040518061010001604052808281526020018581526020013373ffffffffffffffffffffffffffffffffffffffff1681526020018481526020015f8152602001834261053e919061194b565b81526020015f151581526020015f151581525060035f8381526020019081526020015f205f820151815f0155602082015181600101908161057f9190611b15565b506040820151816002015f6101000a81548173ffffffffffffffffffffffffffffffffffffffff021916908373ffffffffffffffffffffffffffffffffffffffff160217905550606082015181600301556080820151816004015560a0820151816005015560c0820151816006015f6101000a81548160ff02191690831515021790555060e08201518160060160016101000a81548160ff021916908315150217905550905050807fcfbb9cc3bd62a88127a0a357ef5745ce183a4f314f3f36a4302bbe74b89e2f1d8533868642610657919061194b565b6040516106679493929190611be4565b60405180910390a250505050565b61067d6110b1565b5f73ffffffffffffffffffffffffffffffffffffffff1660035f8381526020019081526020015f206002015f9054906101000a900473ffffffffffffffffffffffffffffffffffffffff1673ffffffffffffffffffffffffffffffffffffffff160361071e576040517f08c379a000000000000000000000000000000000000000000000000000000000815260040161071590611c78565b60405180910390fd5b60035f8281526020019081526020015f20600501544210610774576040517f08c379a000000000000000000000000000000000000000000000000000000000815260040161076b90611ce0565b60405180910390fd5b5f34116107b6576040517f08c379a00000000000000000000000000000000000000000000000000000000081526004016107ad90611d6e565b60405180910390fd5b3460035f8381526020019081526020015f206004015f8282546107d9919061194b565b925050819055503460045f8381526020019081526020015f205f3373ffffffffffffffffffffffffffffffffffffffff1673ffffffffffffffffffffffffffffffffffffffff1681526020019081526020015f205f82825461083b919061194b565b9250508190555060035f8281526020019081526020015f206003015460035f8381526020019081526020015f20600401541061089e57600160035f8381526020019081526020015f206006015f6101000a81548160ff0219169083151502179055505b60055f9054906101000a900473ffffffffffffffffffffffffffffffffffffffff1673ffffffffffffffffffffffffffffffffffffffff1663a8031a1d336006546040518363ffffffff1660e01b81526004016108fc929190611d8c565b5f604051808303815f87803b158015610913575f5ffd5b505af1158015610925573d5f5f3e3d5ffd5b505050503373ffffffffffffffffffffffffffffffffffffffff16817f38c48552690c96ec2872092ac1db6c19fb59f5a8c5b49bbf41ed4886d0ca692634604051610970919061168d565b60405180910390a36109806110f5565b50565b60605f5f5f5f5f5f5f60035f8a81526020019081526020015f20905080600101816002015f9054906101000a900473ffffffffffffffffffffffffffffffffffffffff16826003015483600401548460050154856006015f9054906101000a900460ff168660060160019054906101000a900460ff16868054610a059061178b565b80601f0160208091040260200160405190810160405280929190818152602001828054610a319061178b565b8015610a7c5780601f10610a5357610100808354040283529160200191610a7c565b820191905f5260205f20905b815481529060010190602001808311610a5f57829003601f168201915b50505050509650975097509750975097509750975050919395979092949650565b6004602052815f5260405f20602052805f5260405f205f91509150505481565b610ac56110fe565b8060068190555050565b610ad76110b1565b5f60035f8381526020019081526020015f209050806002015f9054906101000a900473ffffffffffffffffffffffffffffffffffffffff1673ffffffffffffffffffffffffffffffffffffffff163373ffffffffffffffffffffffffffffffffffffffff1614610b7c576040517f08c379a0000000000000000000000000000000000000000000000000000000008152600401610b7390611dfd565b60405180910390fd5b806006015f9054906101000a900460ff16610bcc576040517f08c379a0000000000000000000000000000000000000000000000000000000008152600401610bc390611e65565b60405180910390fd5b8060060160019054906101000a900460ff1615610c1e576040517f08c379a0000000000000000000000000000000000000000000000000000000008152600401610c1590611ecd565b60405180910390fd5b60018160060160016101000a81548160ff021916908315150217905550806002015f9054906101000a900473ffffffffffffffffffffffffffffffffffffffff1673ffffffffffffffffffffffffffffffffffffffff166108fc826004015490811502906040515f60405180830381858888f19350505050158015610ca5573d5f5f3e3d5ffd5b50817f80230996023d69b50793fa73f1919127c9d8e741d3989743c479169f22e7a2888260040154604051610cda919061168d565b60405180910390a250610ceb6110f5565b50565b5f60045f8481526020019081526020015f205f8373ffffffffffffffffffffffffffffffffffffffff1673ffffffffffffffffffffffffffffffffffffffff1681526020019081526020015f2054905092915050565b610d4c6110b1565b5f60035f8381526020019081526020015f2090508060050154421015610da7576040517f08c379a0000000000000000000000000000000000000000000000000000000008152600401610d9e90611f35565b60405180910390fd5b806006015f9054906101000a900460ff1615610df8576040517f08c379a0000000000000000000000000000000000000000000000000000000008152600401610def90611f9d565b60405180910390fd5b5f60045f8481526020019081526020015f205f3373ffffffffffffffffffffffffffffffffffffffff1673ffffffffffffffffffffffffffffffffffffffff1681526020019081526020015f205411610e86576040517f08c379a0000000000000000000000000000000000000000000000000000000008152600401610e7d90612005565b60405180910390fd5b5f60045f8481526020019081526020015f205f3373ffffffffffffffffffffffffffffffffffffffff1673ffffffffffffffffffffffffffffffffffffffff1681526020019081526020015f205490505f60045f8581526020019081526020015f205f3373ffffffffffffffffffffffffffffffffffffffff1673ffffffffffffffffffffffffffffffffffffffff1681526020019081526020015f20819055503373ffffffffffffffffffffffffffffffffffffffff166108fc8290811502906040515f60405180830381858888f19350505050158015610f6a573d5f5f3e3d5ffd5b503373ffffffffffffffffffffffffffffffffffffffff16837f7ca5472b7ea78c2c0141c5a12ee6d170cf4ce8ed06be3d22c8252ddfc7a6a2c483604051610fb2919061168d565b60405180910390a35050610fc46110f5565b50565b60055f9054906101000a900473ffffffffffffffffffffffffffffffffffffffff1681565b610ff46110fe565b610ffd5f611185565b565b5f60015f9054906101000a900473ffffffffffffffffffffffffffffffffffffffff16905090565b60065481565b6110356110fe565b5f73ffffffffffffffffffffffffffffffffffffffff168173ffffffffffffffffffffffffffffffffffffffff16036110a5575f6040517f1e4fbdf700000000000000000000000000000000000000000000000000000000815260040161109c919061171a565b60405180910390fd5b6110ae81611185565b50565b60025f54036110ec576040517f3ee5aeb500000000000000000000000000000000000000000000000000000000815260040160405180910390fd5b60025f81905550565b60015f81905550565b611106611248565b73ffffffffffffffffffffffffffffffffffffffff16611124610fff565b73ffffffffffffffffffffffffffffffffffffffff161461118357611147611248565b6040517f118cdaa700000000000000000000000000000000000000000000000000000000815260040161117a919061171a565b60405180910390fd5b565b5f60015f9054906101000a900473ffffffffffffffffffffffffffffffffffffffff1690508160015f6101000a81548173ffffffffffffffffffffffffffffffffffffffff021916908373ffffffffffffffffffffffffffffffffffffffff1602179055508173ffffffffffffffffffffffffffffffffffffffff168173ffffffffffffffffffffffffffffffffffffffff167f8be0079c531659141344cd1fd0a4f28419497f9722a3daafe3b4186f6b6457e060405160405180910390a35050565b5f33905090565b5f604051905090565b5f5ffd5b5f5ffd5b5f819050919050565b61127281611260565b811461127c575f5ffd5b50565b5f8135905061128d81611269565b92915050565b5f602082840312156112a8576112a7611258565b5b5f6112b58482850161127f565b91505092915050565b6112c781611260565b82525050565b5f81519050919050565b5f82825260208201905092915050565b8281835e5f83830152505050565b5f601f19601f8301169050919050565b5f61130f826112cd565b61131981856112d7565b93506113298185602086016112e7565b611332816112f5565b840191505092915050565b5f73ffffffffffffffffffffffffffffffffffffffff82169050919050565b5f6113668261133d565b9050919050565b6113768161135c565b82525050565b5f8115159050919050565b6113908161137c565b82525050565b5f610100820190506113aa5f83018b6112be565b81810360208301526113bc818a611305565b90506113cb604083018961136d565b6113d860608301886112be565b6113e560808301876112be565b6113f260a08301866112be565b6113ff60c0830185611387565b61140c60e0830184611387565b9998505050505050505050565b5f5ffd5b5f5ffd5b7f4e487b71000000000000000000000000000000000000000000000000000000005f52604160045260245ffd5b611457826112f5565b810181811067ffffffffffffffff8211171561147657611475611421565b5b80604052505050565b5f61148861124f565b9050611494828261144e565b919050565b5f67ffffffffffffffff8211156114b3576114b2611421565b5b6114bc826112f5565b9050602081019050919050565b828183375f83830152505050565b5f6114e96114e484611499565b61147f565b9050828152602081018484840111156115055761150461141d565b5b6115108482856114c9565b509392505050565b5f82601f83011261152c5761152b611419565b5b813561153c8482602086016114d7565b91505092915050565b5f5f5f6060848603121561155c5761155b611258565b5b5f84013567ffffffffffffffff8111156115795761157861125c565b5b61158586828701611518565b93505060206115968682870161127f565b92505060406115a78682870161127f565b9150509250925092565b5f60e0820190508181035f8301526115c9818a611305565b90506115d8602083018961136d565b6115e560408301886112be565b6115f260608301876112be565b6115ff60808301866112be565b61160c60a0830185611387565b61161960c0830184611387565b98975050505050505050565b61162e8161135c565b8114611638575f5ffd5b50565b5f8135905061164981611625565b92915050565b5f5f6040838503121561166557611664611258565b5b5f6116728582860161127f565b92505060206116838582860161163b565b9150509250929050565b5f6020820190506116a05f8301846112be565b92915050565b5f819050919050565b5f6116c96116c46116bf8461133d565b6116a6565b61133d565b9050919050565b5f6116da826116af565b9050919050565b5f6116eb826116d0565b9050919050565b6116fb816116e1565b82525050565b5f6020820190506117145f8301846116f2565b92915050565b5f60208201905061172d5f83018461136d565b92915050565b5f6020828403121561174857611747611258565b5b5f6117558482850161163b565b91505092915050565b7f4e487b71000000000000000000000000000000000000000000000000000000005f52602260045260245ffd5b5f60028204905060018216806117a257607f821691505b6020821081036117b5576117b461175e565b5b50919050565b7f54617267657420616d6f756e74206d75737420626520677265617465722074685f8201527f616e207a65726f00000000000000000000000000000000000000000000000000602082015250565b5f6118156027836112d7565b9150611820826117bb565b604082019050919050565b5f6020820190508181035f83015261184281611809565b9050919050565b7f4475726174696f6e206d7573742062652067726561746572207468616e207a655f8201527f726f000000000000000000000000000000000000000000000000000000000000602082015250565b5f6118a36022836112d7565b91506118ae82611849565b604082019050919050565b5f6020820190508181035f8301526118d081611897565b9050919050565b7f4e487b71000000000000000000000000000000000000000000000000000000005f52601160045260245ffd5b5f61190e82611260565b91507fffffffffffffffffffffffffffffffffffffffffffffffffffffffffffffffff82036119405761193f6118d7565b5b600182019050919050565b5f61195582611260565b915061196083611260565b9250828201905080821115611978576119776118d7565b5b92915050565b5f819050815f5260205f209050919050565b5f6020601f8301049050919050565b5f82821b905092915050565b5f600883026119da7fffffffffffffffffffffffffffffffffffffffffffffffffffffffffffffffff8261199f565b6119e4868361199f565b95508019841693508086168417925050509392505050565b5f611a16611a11611a0c84611260565b6116a6565b611260565b9050919050565b5f819050919050565b611a2f836119fc565b611a43611a3b82611a1d565b8484546119ab565b825550505050565b5f5f905090565b611a5a611a4b565b611a65818484611a26565b505050565b5b81811015611a8857611a7d5f82611a52565b600181019050611a6b565b5050565b601f821115611acd57611a9e8161197e565b611aa784611990565b81016020851015611ab6578190505b611aca611ac285611990565b830182611a6a565b50505b505050565b5f82821c905092915050565b5f611aed5f1984600802611ad2565b1980831691505092915050565b5f611b058383611ade565b9150826002028217905092915050565b611b1e826112cd565b67ffffffffffffffff811115611b3757611b36611421565b5b611b41825461178b565b611b4c828285611a8c565b5f60209050601f831160018114611b7d575f8415611b6b578287015190505b611b758582611afa565b865550611bdc565b601f198416611b8b8661197e565b5f5b82811015611bb257848901518255600182019150602085019450602081019050611b8d565b86831015611bcf5784890151611bcb601f891682611ade565b8355505b6001600288020188555050505b505050505050565b5f6080820190508181035f830152611bfc8187611305565b9050611c0b602083018661136d565b611c1860408301856112be565b611c2560608301846112be565b95945050505050565b7f50726f6a65637420646f6573206e6f74206578697374000000000000000000005f82015250565b5f611c626016836112d7565b9150611c6d82611c2e565b602082019050919050565b5f6020820190508181035f830152611c8f81611c56565b9050919050565b7f43726f776466756e64696e672068617320656e646564000000000000000000005f82015250565b5f611cca6016836112d7565b9150611cd582611c96565b602082019050919050565b5f6020820190508181035f830152611cf781611cbe565b9050919050565b7f436f6e747269627574696f6e206d7573742062652067726561746572207468615f8201527f6e207a65726f0000000000000000000000000000000000000000000000000000602082015250565b5f611d586026836112d7565b9150611d6382611cfe565b604082019050919050565b5f6020820190508181035f830152611d8581611d4c565b9050919050565b5f604082019050611d9f5f83018561136d565b611dac60208301846112be565b9392505050565b7f4f6e6c792063726561746f722063616e2077697468647261772066756e6473005f82015250565b5f611de7601f836112d7565b9150611df282611db3565b602082019050919050565b5f6020820190508181035f830152611e1481611ddb565b9050919050565b7f46756e64696e6720676f616c206e6f74206d65740000000000000000000000005f82015250565b5f611e4f6014836112d7565b9150611e5a82611e1b565b602082019050919050565b5f6020820190508181035f830152611e7c81611e43565b9050919050565b7f46756e647320616c72656164792072656c6561736564000000000000000000005f82015250565b5f611eb76016836112d7565b9150611ec282611e83565b602082019050919050565b5f6020820190508181035f830152611ee481611eab565b9050919050565b7f43726f776466756e64696e67206973207374696c6c206f6e676f696e670000005f82015250565b5f611f1f601d836112d7565b9150611f2a82611eeb565b602082019050919050565b5f6020820190508181035f830152611f4c81611f13565b9050919050565b7f50726f6a65637420726561636865642066756e64696e6720676f616c000000005f82015250565b5f611f87601c836112d7565b9150611f9282611f53565b602082019050919050565b5f6020820190508181035f830152611fb481611f7b565b9050919050565b7f4e6f20636f6e747269627574696f6e7320666f756e64000000000000000000005f82015250565b5f611fef6016836112d7565b9150611ffa82611fbb565b602082019050919050565b5f6020820190508181035f83015261201c81611fe3565b905091905056fea26469706673582212200739df00642cd9fdf8e1f4b80f043756678e9cceb6a67490d56fcf32e735ab7a64736f6c634300081c0033","linkReferences":{}},"methodIdentifiers":{"claimRefund(uint256)":"5b7baf64","contributeToResearch(uint256)":"1d0866c0","contributions(uint256,address)":"3d891f59","desciToken()":"6002b50b","fundingReward()":"a8ec559a","getResearchProject(uint256)":"35aaf9f5","getUserContribution(uint256,address)":"5117e338","owner()":"8da5cb5b","projects(uint256)":"107046bd","releaseFunds(uint256)":"4d68282f","renounceOwnership()":"715018a6","setFundingReward(uint256)":"3df671a9","startResearchCrowdfunding(string,uint256,uint256)":"14780c40","transferOwnership(address)":"f2fde38b"},"id":41}